:020000040800F2
:1000000000310020C11500086D0400086F040008CD
:1000100073040008770400087B0400080000000057
:100020000000000000000000000000007F04000845
:100030008104000800000000830400088504000813
:10004000DB150008DB150008DB150008DB150008D0
:10005000DB150008DB150008DB150008DB150008C0
:10006000DB150008DB150008DB150008DB150008B0
:10007000DB150008DB150008DB150008DB150008A0
:10008000DB150008DB150008DB150008DB15000890
:10009000DB150008DB150008DB150008DB15000880
:1000A000DB150008DB150008DB150008DB15000870
:1000B000DB150008DB150008DB150008DB15000860
:1000C000DB150008DB150008DB150008DB15000850
:1000D000DB15000853230008DB150008DB150008BA
:1000E000DB150008DB150008DB150008DB15000830
:1000F000DB150008DB150008DB150008DB15000820
:10010000DB150008DB150008DB150008DB1500080F
:10011000DB150008DB150008DB150008DB150008FF
:10012000DB150008DB150008DB150008DB150008EF
:10013000DFF810D002F0D4F9004800474901000868
:10014000AFF30080003100200EB5974C00BF02F0E5
:100150003BF84FF4E13002F0B0F800F085FA00F01F
:1001600055FB92A002F0CEF9FF2000234FF49472C9
:10017000982100908F4800F003FCFF2000F03CFC29
:10018000FF2000234FF49472982100908A4800F0D9
:10019000F7FBFF2000F030FC8749864800F0B5FBF4
:1001A00000F01CFB85A002F0ADF98649814800F003
:1001B000ACFB00F013FB00F01EFB83A002F0A2F9E1
:1001C0004FF47A7002F03DF84FF47A7002F039F88B
:1001D000FF2000F011FC00F019FB77497E4800F089
:1001E00094FB00F0FBFA00F006FB7CA002F08AF919
:1001F0004FF47A7002F025F84FF47A7002F021F88B
:10020000FF2000F0F9FBCEE000F000FB6A4800F0B0
:1002100079FC002075497023D822CDE900100146F1
:10022000282001F063F9634800F06CFC00201023E3
:100230006FA282210090242001F03AF800201023C0
:100240006EA282210090642000F050FF5A49594864
:1002500000F05BFB00F0C2FA00F0CDFA4FF47A70C8
:1002600001F0EFFF4FF47A7001F0EBFF00F0CEFAEF
:1002700000F027FB00F0B2FA00F0BDFA4FF47A70FC
:1002800001F0DFFF4FF47A7001F0DBFF4FF47A707A
:1002900001F0D7FF4FF47A7001F0D3FF4FF47A707A
:1002A00001F0CFFF4FF47A7001F0CBFF424800F02D
:1002B00029FCFF2000F0A0FB0020102355A20146DE
:1002C0000090212000F0F4FF0020102359A21421F7
:1002D0000090312000F0ECFF00200090972340F2C6
:1002E00027120146019000F060FC00200090762368
:1002F0002C224E210190042000F057FC0120002305
:1003000019226421009040F2091000F085FC294870
:1003100000F0F8FBFF2000F06FFB002030210222EC
:100320000423CDE90021029022464A21582001F001
:1003300081F800200346192264210090F52000F086
:100340006BFC0120002177235822CDE900104E21BB
:10035000302000F02AFC00203C2340F227121946EE
:10036000009000F0D2FB0020102339A288210090D9
:100370002C2000F0BBFE10490E4800F0C6FA00F039
:100380002DFA00F038FA4FF47A7001F05AFF4FF46A
:100390007A7001F056FF4FF47A7001F052FF4FF47B
:1003A0007A7001F04EFF2FE7CDCC40414F4B0D0A44
:1003B00000000000340000202C160020574849544B
:1003C000450D0A005425000867496D6167655F3176
:1003D0005F4F4B0D0A0000001C47000867496D6124
:1003E00067655F335F4F4B0D0A0000004C3B000810
:1003F000322E3636696E636800000000B5E7D7D349
:10040000C4ABCBAEC6C1B6CFB5E7BFC9CFD4CABEA9
:100410000000000057656C636F6D6520746F2032BB
:100420002E36362D696E636820452D7061706572B9
:100430000000000077697468203239362078203156
:100440003532207265736F6C7574696F6E000000D1
:10045000D6A3D6DDD6D0BEB0D4B0B5E7D7D3BFC60D
:10046000BCBCD3D0CFDEB9ABCBBE0000704700BF61
:10047000FEE700BFFEE700BFFEE700BFFEE77047F4
:1004800070477047704700000CB500200190009045
:100490006C48006840F480306A49086000BF6948D1
:1004A000006800F4003000900198401C0190009812
:1004B00018B90198B0F5A06FF1D16248006800F456
:1004C000003010B10120009001E000200090009861
:1004D000012843D15C48006840F010005A49086088
:1004E0000846006820F0030008600846006840F0F5
:1004F0000200086053484068524948600846406816
:1005000048600846406840F480604860084640689B
:1005100020F47C1048600846406840F4E8104860C9
:100520000846006840F08070086000BF45480068D9
:1005300000F000700028F9D04248406820F0030025
:10054000404948600846406840F00200486000BFEB
:100550003C48406800F00C000828F9D10CBD10B5EB
:10056000FFF792FF10BD10B53648006840F001005B
:1005700034490860084640683449084031494860B9
:1005800008460068324908402E490860084600685D
:1005900020F4802008600846406820F4FE0048608F
:1005A0004FF41F008860FFF7DAFF4FF00060294921
:1005B000086010BD10B5002100200022214B5B68AF
:1005C00003F00C0121B1042906D0082928D107E045
:1005D000214B224C236027E01F4B204C236023E05B
:1005E000184B5B6803F47010164B5B6803F48032A1
:1005F000022303EB904022B9194B4343174C23606D
:100600000DE0104B5B6803F4003323B1144B4343FC
:10061000124C236003E0104B4343104C236003E073
:100620000D4B0E4C236000BF00BF064B5B68C3F34D
:1006300003130C4CE15C094B1B68CB40074C236057
:1006400010BD000000100240002002400000FFF832
:10065000FFFFF6FE08ED00E000127A000000002027
:1006600000093D000400002008B501212C2001F004
:1006700043FB2020ADF8000010208DF8030003207C
:100680008DF802006946424801F07AF88020ADF802
:10069000000010208DF8030003208DF80200694649
:1006A0003B4801F06DF80420ADF8000010208DF8F3
:1006B000030003208DF802006946364801F060F817
:1006C0002020ADF8000010208DF8030003208DF8E5
:1006D00002006946304801F053F81020ADF80000E0
:1006E0008DF8030003208DF802006946284801F0C8
:1006F00047F84020ADF8000048208DF80300694617
:10070000254801F03DF808BD70B504461021204889
:1007100001F0E5F8002517E020211D4801F0DFF881
:1007200004F0800020B18021194801F0D6F803E0E0
:100730008021174801F0D3F82021154801F0CDF8A9
:100740006006040E681CC5B2082DE5DB10211048B8
:1007500001F0C3F870BD10B5044620210E4801F029
:10076000BEF82046FFF7D0FF20210B4801F0B5F876
:1007700010BD10B504462021074801F0AEF8204610
:10078000FFF7C2FF2021044801F0A7F810BD0000C8
:100790000008014000140140000C014010B505E0C4
:1007A0004021754801F07FF800B900E0F8E700BF8C
:1007B00010BD10B5642001F044FD04216F4801F024
:1007C0008EF80A2001F03DFD04216C4801F085F807
:1007D0000A2001F036FDFFF7E1FF10BD10B5222021
:1007E000FFF7B9FFF420FFF7C4FF2020FFF7B3FFA6
:1007F000FFF7D4FF10BD10B51020FFF7ACFF0120AC
:10080000FFF7B7FFC82001F01CFD10BD10B5FFF7C2
:10081000D0FFFFF7C3FF1220FFF79DFFFFF7BEFFDA
:100820003C20FFF798FF0520FFF7A3FF0120FFF70B
:1008300092FF2720FFF79DFF0120FFF79AFF00207E
:10084000FFF797FF1120FFF786FF0220FFF791FFC8
:100850004420FFF780FF1220FFF78BFF0020FFF7F7
:1008600088FF4520FFF777FF0020FFF782FF002079
:10087000FFF77FFF2720FFF77CFF0120FFF779FFBD
:100880002120FFF768FF0020FFF773FF8020FFF7AC
:1008900070FF1820FFF75FFF8020FFF76AFF4E20F0
:1008A000FFF759FF1220FFF764FF4F20FFF753FFB8
:1008B0000020FFF75EFF0020FFF75BFFFFF76EFFF2
:1008C00010BD10B53C20FFF746FF0120FFF751FF98
:1008D0002420FFF740FF002404E0FF20FFF749FF3A
:1008E000601C84B241F2F8508442F6DB2620FFF708
:1008F00032FF002404E0FF20FFF73BFF601C84B2BE
:1009000041F2F8508442F6DB10BD2DE9F04707466E
:10091000884613264FF494792420FFF71CFF002506
:100920000CE0002406E005FB0641785CFFF721FFA0
:10093000601C84B2B442F6DB681C85B24D45F0DB26
:100940002620FFF708FF00250FE0002409E005FB43
:10095000064118F80110C943C8B2FFF70AFF601C2E
:1009600084B2B442F3DB681C85B24D45EDDBFFF782
:1009700035FFBDE8F0870000000C01400014014085
:100980002DE9F0410646069F0020F74C20602046E6
:1009900006608781018142810C464FEAE17C01EBD0
:1009A0005C7C4FEAEC0CA1EBCC0CBCF1000F07D146
:1009B0000D464FEAE57C05EB5C7C4FEAEC0C08E069
:1009C00008464FEAE17C01EB5C7C4FEAEC0C0CF151
:1009D000010CDFF89483A8F810C040464282C3811E
:1009E0000BB1B42B03D1E0488280C18002E0DE4825
:1009F0008180C280BDE8F08110B50246002110E080
:100A0000002008E0D84C248A01FB0403D64C24685B
:100A1000E254441CA0B2D44C248A8442F2DC4C1C24
:100A2000A1B2D14C648A8C42EADC10BD2DE9F041C0
:100A300003461746CC4EF6893EB15A2E08D0B42E46
:100A40000DD0B6F5877F1CD114E008461A461AE08F
:100A50001846C54E7689761A761EB2B213E0C24E9B
:100A60003689761A761EB0B2BF4E7689F61A761E91
:100A7000B2B208E0BC4E3689F61A761EB0B20A460B
:100A800001E0BDE8F08100BF06464FEAE07C00EBE4
:100A90005C7C4FEAEC0CDFF8D082B8F8108002FBE7
:100AA00008C4B14E3668355DAFB906464FEAE07C02
:100AB00000EB5C7C4FEAEC0CA0EBCC084FF0800C18
:100AC0004CFA08FC25EA0C0CDFF89C82D8F8008070
:100AD00008F804C014E006464FEAE07C00EB5C7CBA
:100AE0004FEAEC0CA0EBCC084FF0800C4CFA08FC61
:100AF0004CEA050CDFF87082D8F8008008F804C0D2
:100B000000BFBEE79849086070472DE9FF4F0446D3
:100B10000D4616461F46A146AA46301B01D4301B7F
:100B200000E0A01B8346781B002801DC781B00E056
:100B3000E81B0390B44201DA012001E04FF0FF30DE
:100B40000290BD4201DA012001E04FF0FF30019038
:100B500003980BEB00080020009000BF0098401C99
:100B6000C0B20090514648460D9AFFF75FFF4FEA2A
:100B700048010398814208DBB14500D112E0039897
:100B80008044029848441FFA80F94FEA48005845CB
:100B9000E4DCBA4500D105E0D844019850441FFA7E
:100BA00080FADBE700BFBDE8FF8F2DE9F8478046FC
:100BB0000E4691461F46DDE9094ABAF1000F0DD0F5
:100BC000354608E02B464A46294640460094FFF742
:100BD0009CFF681C85B2BD42F4DB1BE033464A46ED
:100BE000314640460094FFF790FF3B46424631466F
:100BF00040460094FFF789FF33464A463946484647
:100C00000094FFF782FF3B4642463946484600942F
:100C1000FFF77BFFBDE8F8872DE9F04F05460E464C
:100C200092469B46002457460320A0EB4A090998A8
:100C3000002858D054E0A04641E006EB080291B2EB
:100C40002A1990B25A46FFF7F1FE06EB080291B25C
:100C50002A1B90B25A46FFF7E9FE321991B2A5EB72
:100C6000080290B25A46FFF7E1FE321B91B2A5EBA3
:100C7000080290B25A46FFF7D9FEA6EB080291B2DD
:100C80002A1B90B25A46FFF7D1FEA6EB080291B29A
:100C90002A1990B25A46FFF7C9FE321B91B205EBF2
:100CA000080290B25A46FFF7C1FE321991B205EB25
:100CB000080290B25A46FFF7B9FE08F10108B8459C
:100CC000BBDDB9F1000F03DAA000801D814405E00F
:100CD000E01B80000A308144781E87B2601C84B219
:100CE000BC42A8DD4CE049E0F21991B22A1990B259
:100CF0005A46FFF79BFEF21991B22A1B90B25A4650
:100D0000FFF794FE321991B2EA1B90B25A46FFF7F0
:100D10008DFE321B91B2EA1B90B25A46FFF786FE57
:100D2000F21B91B22A1B90B25A46FFF77FFEF21BCC
:100D300091B22A1990B25A46FFF778FE321B91B24F
:100D4000EA1990B25A46FFF771FE321991B2EA19C8
:100D500090B25A46FFF76AFEB9F1000F06DAA0001A
:100D6000801D814408E00000242C0020E01B80004E
:100D70000A308144781E87B2601C84B2BC42B3DD65
:100D8000BDE8F08F2DE9FF4F81B0064617461C469F
:100D900000962046E21704EB5272D2102146E31768
:100DA00004EB5373DB10A4EBC3030BB1012300E08E
:100DB00000231A4462431FFA82FB4FF0050A002504
:100DC00045E005EB8510F74911F8100039788842A5
:100DD0003AD105EB8510F34901EB40004078797872
:100DE000884231D14FF000082CE04FF0000921E09B
:100DF00005EB8510EB4901EB4000801C10F8080062
:100E0000012101FA09F1084020B130460E9A0299F9
:100E1000FFF70CFE701C86B20098301AA04205D174
:100E2000009E0298401C80B2029006E009F1010089
:100E300000F0FF09B9F1080FDADB00BF08F101008B
:100E400000F0FF08D845D0DB00BF681C85B25545CF
:100E5000B7DB05B0BDE8F08F2DE9FF4F81B0064646
:100E600017461C4600962046E21704EB5272D21039
:100E70002146E31704EB5373DB10A4EBC3030BB160
:100E8000012300E000231A4462431FFA82FB4FF063
:100E9000050A00254BE005EB850000EB4510C24933
:100EA00011F81000397888423ED105EB850000EB3F
:100EB0004510BD4901EB400040787978884233D134
:100EC0004FF000082EE04FF0000923E005EB85000D
:100ED00000EB4510B44901EB4000801C10F80800FD
:100EE000012101FA09F1084020B130460E9A029919
:100EF000FFF79CFD701C86B20098301AA04205D105
:100F0000009E0298401C80B2029006E009F10100A8
:100F100000F0FF09B9F1080FD8DB00BF08F10100AC
:100F200000F0FF08D845CEDB00BF681C85B25545F0
:100F3000B1DB05B0BDE8F08F2DE9FF4F81B006466B
:100F400017461C4600962046E21704EB5272D21058
:100F50002146E31704EB5373DB10A4EBC3030BB17F
:100F6000012300E000231A4462431FFA82FB4FF082
:100F7000140A002545E005EB05108C4911F8100016
:100F8000397888423AD105EB0510884901EB4000D9
:100F900040787978884231D14FF000082CE04FF04A
:100FA000000921E005EB0510804901EB4000801CA1
:100FB00010F80800012101FA09F1084020B130467B
:100FC0000E9A0299FFF732FD701C86B20098301A13
:100FD000A04205D1009E0298401C80B2029006E01B
:100FE00009F1010000F0FF09B9F1080FDADB00BFD9
:100FF00008F1010000F0FF08D845D0DB00BF681CF5
:1010000085B25545B7DB05B0BDE8F08F2DE9FF4F40
:1010100081B0064617461C4600962046E21704EBB0
:101020005272D2102146E31704EB5373DB10A4EB8A
:10103000C3030BB1012300E000231A4462431FFAEB
:1010400082FB4FF0050A00254BE005EB850000EB25
:10105000C500574911F81000397888423ED105EB98
:10106000850000EBC500524901EB400040787978DB
:10107000884233D14FF000082EE04FF0000923E002
:1010800005EB850000EBC500494901EB4000801CE1
:1010900010F80800012101FA09F1084020B130469A
:1010A0000E9A0299FFF7C2FC701C86B20098301AA3
:1010B000A04205D1009E0298401C80B2029006E03A
:1010C00009F1010000F0FF09B9F1080FD8DB00BFFA
:1010D00008F1010000F0FF08D845CEDB00BF681C16
:1010E00085B25545B1DB05B0BDE8F08F2DE9F8417B
:1010F0000746884616461C46079D2CE00C2C07D157
:1011000023463246414638460095FFF77FFF1FE0F1
:10111000102C07D123463246414638460095FFF74A
:101120000BFF15E0182C07D12346324641463846BE
:101130000095FFF791FE0BE0202C07D123463246A5
:10114000414638460095FFF71DFE01E0BDE8F881F5
:10115000B61C381987B230780028CFD100BFF5E728
:101160002DE9FE4F0746884692461C460197CDF86A
:101170000080082C02D14FF0060927E02046E31733
:1011800004EB5373DB1021464FEAE47C04EB5C7CF8
:101190004FEAEC0CA4EBCC0CBCF1000F0AD04FF0E2
:1011A000010C09E008B1000896AF0008EEAC000899
:1011B0006CAC00084FF0000C6344224604EBD27C78
:1011C0004FEA6C0C03FB0CF31FFA83F9AAF1200021
:1011D00086B2002568E0082C07D106EB4600F349EB
:1011E00001EB400010F805B027E00C2C07D106EB0E
:1011F0004600EF4901EB800010F805B01DE0102C0F
:1012000005D1EC4800EB061010F805B015E0182CDD
:1012100007D106EBC600E84901EB800010F805B0E5
:101220000BE0302C07D106EBC600E44901EB0010BF
:1012300010F805B001E0BDE8FE8F002002901CE030
:101240000BF0010028B1414638460C9AFFF7EEFB3F
:1012500009E00C9808B9012000E000200246414650
:101260003846FFF7E3FB4FEA6B0B08F101001FFA6A
:1012700080F80298401C80B2029002980828DFDBB8
:10128000781C87B2082C0BD004EBD4714A1001995A
:10129000791A8A4204D1019F0098083080B20090E8
:1012A000DDF80080681C85B24D4594DB00BFC2E7C5
:1012B0002DE9F84106460F4614461D46DDF81C8010
:1012C0000EE0CDF8008022782B4639463046FFF7F5
:1012D00047FF641C284605EBD07106EB61018EB216
:1012E00020780028EDD1BDE8F88110B50246012034
:1012F00000E050430B1EA1F10104A1B2F9D110BDD1
:101300002DE9FF4F82B0064691461F46DDE90F4AA0
:101310004FF0000B082C01D14FF0020B00252FE0FD
:10132000781B401E81B20A20FFF7DFFFB9FBF0F007
:101330000A21B0FBF1F201FB1208B8F1000F0ED147
:1013400004EBD4710BEB610101FB056188B223460C
:101350003022CDE900A40399FFF702FF0EE004EB71
:10136000D4710BEB610101FB056188B2234608F1E2
:101370003002CDE900A40399FFF7F2FE681CC5B264
:10138000BD42CDDB06B0BDE8F08F2DE9FF4F85B043
:10139000064691461C46DDE9138A129F404608EB3B
:1013A000D071C1F34701049139460A20FFF79DFF30
:1013B000009001F045F84946019001F00FF80290C5
:1013C00001F043F880B2039000252EE0601B401E20
:1013D00081B20A20FFF789FF0399B1FBF0F00A21DF
:1013E000B0FBF1F201FB120BE01BA8420FD1E21B94
:1013F000CDF800A0049902FB016188B243462E2279
:101400000699FFF7ADFE681CC5B2601CC4B2CDF8EA
:1014100000A0049905FB016188B243460BF130023C
:101420000699FFF79DFE681CC5B2A542CEDB09B048
:10143000BDE8F08F2DE9FF4F85B007468A461C4670
:10144000DDE91289484609EBD071C1F347064146F0
:101450000A20FFF74AFF019000F0F2FF8346079948
:1014600000F0BCFF029000F0F0FF80B20390002576
:1014700037E0601B401E81B20A20FFF736FF039958
:10148000B1FBF0F00A21B0FBF1F201FB1200049075
:10149000A4EB0800A84217D11498B34606EBDB7200
:1014A0005210921EA4EB080303FB06731A4400902B
:1014B00090B2AAF1060291B24B463A22FFF750FED3
:1014C000681CC5B2601CC4B2149805FB067100907C
:1014D00088B24B46049A30325146FFF741FE681CF1
:1014E000C5B2A542C5DB09B0BDE8F08F2DE9FC4FC0
:1014F00080460D4614461E46002001900095204669
:10150000E21704EB5272D2102146E31704EB537337
:10151000DB10A4EBC3030BB1012300E000231A444A
:1015200094B200273EE04FF0000A37E001990B9893
:1015300010F801B04FF000091CE00BF0800050B132
:101540000C9808B9012000E00020024629464046D8
:10155000FFF76CFA04E0294640460C9AFFF766FA5A
:10156000681C85B24FF6FF7000EA4B0B09F10100D1
:101570001FFA80F9B9F1080FDFDB0098281AB04292
:1015800004D1009D08F101001FFA80F80198401C69
:1015900080B201900AF101001FFA80FAA245C5DB72
:1015A000781C87B2B742BEDBBDE8FC8F145D000833
:1015B0003C5F0008B0630008A0690008FC760008E2
:1015C0000648804706480047FEE7FEE7FEE7FEE7DD
:1015D000FEE7FEE7FEE7FEE7FEE7FEE76705000839
:1015E0003101000831490143314A1160704770B53B
:1015F000002100230F22C47804B32D4C246804F486
:10160000E064C4F5E064210AC1F10403CA404478EF
:1016100004FA03F18478144021430901254C06782B
:10162000A155047804F01F050124AC4005786D1124
:10163000AD0005F1E025C5F8004109E0047804F0AB
:101640001F050124AC401C4D0678761145F8264054
:1016500070BD1A4A0A400243154B1B1F1A6070479F
:1016600039B1134A121D12680243114B1B1D1A6037
:1016700006E00F4A121D126882430D4B1B1D1A60B3
:101680007047042808D14FF0E021096941F00401B6
:101690004FF0E022116107E04FF0E021096921F0ED
:1016A00004014FF0E0221161704700000000FA05CC
:1016B0000CED00E000E400E080E100E080FFFF1FAF
:1016C00010B50446CC48844208D10121042000F022
:1016D0002DFB0021042000F029FB46E0C74884428E
:1016E00008D10121082000F021FB0021082000F092
:1016F0001DFB3AE0C248844208D10121102000F0CD
:1017000015FB0021102000F011FB2EE0BD488442A3
:1017100008D10121202000F009FB0021202000F049
:1017200005FB22E0B848844208D10121402000F0A6
:10173000FDFA0021402000F0F9FA16E0B348844297
:1017400008D10121802000F0F1FA0021802000F072
:10175000EDFA0AE0AE48844207D10121801500F07D
:10176000E5FA0021A01500F0E1FA10BD10B5012145
:10177000084600F0DBFA0021012000F0D7FA10BD86
:101780002DE9F04102460025002600200023002418
:10179000002791F803C00CF00F0591F803C00CF07E
:1017A000100CBCF1000F03D091F802C04CEA050503
:1017B00091F800C0BCF1000F31D0146800202BE07C
:1017C0004FF0010C0CFA00F3B1F800C00CEA03066C
:1017D0009E4220D183004FF00F0C0CFA03F7BC435C
:1017E00005FA03FC4CEA040491F803C0BCF1280F8D
:1017F00006D14FF0010C0CFA00FCC2F814C00AE04C
:1018000091F803C0BCF1480F05D14FF0010C0CFA60
:1018100000FCC2F810C0401C0828D1D31460B1F8F5
:1018200000C0BCF1FF0F34DD546800202EE000F151
:10183000080C4FF0010808FA0CF3B1F800C00CEAEC
:1018400003069E4221D183004FF00F0C0CFA03F7E0
:10185000BC4305FA03FC4CEA040491F803C0BCF154
:10186000280F05D100F1080C08FA0CF8C2F8148012
:1018700091F803C0BCF1480F07D100F1080C4FF0FC
:10188000010808FA0CF8C2F81080401C0828CED3D2
:101890005460BDE8F0814FF6FF7101800221817034
:1018A0000421C17070470246002093680B400BB1C1
:1018B000012000E0002070470146886880B2704730
:1018C00002460020D3680B400BB1012000E000204D
:1018D00070470146C86880B2704701617047416136
:1018E00070470AB1016100E041617047C160704713
:1018F0004FF480320A438261816182618269826928
:10190000704702460020434B18684FF6807318401A
:1019100040EA021008433F4B186070473E49C861D7
:101920007047F0B50A46002300240021002500F08E
:101930000046B6F1004F02D1364EF16901E0354E56
:101940007168C0F3034583B200F44016B6F5401F3A
:1019500008D121F070612F4E766826F070662D4F09
:101960007E6012E000F48016B6F5801F06D10326D3
:1019700006FA05F4A14341F0706106E0460D360118
:1019800003FA06F6B14341F0706122B1460D36010B
:1019900003FA06F6314300F00046B6F1004F02D1DB
:1019A0001C4EF16101E01B4E7160F0BD30B50022AC
:1019B0008B071C0F0F2303FA04F2164B08338C100D
:1019C00053F824309343134C08348D1044F82530D9
:1019D00023468C1053F824308C07240F00FA04F4AB
:1019E00023430C4C08348D1044F8253030BD0A498F
:1019F000DC3108607047000000080140000C014025
:101A0000001001400014014000180140001C01407A
:101A1000002001400000014000002042DF48006833
:101A200040F00100DD49086008464068DC49084094
:101A3000DA49486008460068DA490840D749086032
:101A40000846006820F4802008600846406820F4BA
:101A5000FE0048604FF41F0088607047CF49096856
:101A600021F48031CD4A11601146096821F48021AA
:101A70001160B0F5803F03D0B0F5802F0ED106E0A5
:101A8000C649096841F48031C44A116007E0C3497E
:101A9000096841F4A021C14A116000E000BF00BF05
:101AA000704710B501460022002300204A11012A88
:101AB00002D1BA4C236806E0022A02D1B74C236A4D
:101AC00001E0B64C636A01F01F02012494401C40FF
:101AD0000CB1012000E0002010BD38B500200090BE
:101AE0000024002500BF3120FFF7DBFF05460098EA
:101AF000401C00900098B0F5A06F01D0002DF2D0EE
:101B00003120FFF7CEFF08B1012400E00024204679
:101B100038BD01460020A14A106820F0F80040EAD4
:101B2000C10010607047A04908607047024600205D
:101B30009A4B586820F47C1042EA01031843974BF3
:101B40005860704798490866704701460020934ADC
:101B5000506820F003000843506070478F48406889
:101B600000F00C007047014600208C4A506820F0BD
:101B7000F00008435060704701460020874A5068D3
:101B800020F4E06008435060704701460020834A1B
:101B9000506820F4605040EAC1005060704729B19D
:101BA0007E4A527A02437D4B5A7204E07B4A527A53
:101BB00082437A4B5A7270477B49D831086070472C
:101BC00001460020754A506820F4404008435060A8
:101BD00070470021714A20321170704A82F820103B
:101BE000012802D004280AD104E001216B4A2032E6
:101BF000117005E00521694A2032117000E000BF34
:101C000000BF70476949086070476449096A014329
:101C1000624A11627047654944390860704730B5BF
:101C200000210022002400235C4D6D6805F00C01AA
:101C300021B1042905D0082923D105E05C4D0560B8
:101C400022E05B4D05601FE0544D6D6805F4701295
:101C5000524D6D6805F48034022505EB92421CB9A3
:101C6000544D554305600BE04C4D6D6805F400354F
:101C70001DB1504D5543056002E04D4D5543056083
:101C800002E04B4D056000BF00BF444D6D6805F09C
:101C9000F0010909484D6B5C0568DD4045603F4D2A
:101CA0006D6805F4E061090A434D6B5C4568DD40F1
:101CB00085603A4D6D6805F46051C90A3E4D6B5C14
:101CC0004568DD40C560354D6D6805F44041890BC0
:101CD0003A4D6B5CC568B5FBF3F5056130BD29B1C4
:101CE0002E4A526902432D4B5A6104E02B4A526935
:101CF00082432A4B5A61704729B1284A92690243AC
:101D0000264B9A6104E0254A92698243234B9A61EB
:101D1000704729B1214AD2690243204BDA6104E0BD
:101D20001E4AD26982431D4BDA61704729B11B4AB2
:101D3000D2680243194BDA6004E0184AD268824341
:101D4000164BDA60704729B1144A12690243134BEB
:101D50001A6104E0114A12698243104B1A617047FC
:101D600012494039086070470F49C86470470B49F1
:101D7000C87170470948406A40F08070074948625E
:101D8000704701460020054A92680A400AB10120C6
:101D900000E000207047014988727047001002403F
:101DA0000000FFF8FFFFF6FE0000424280044242BE
:101DB00000127A0000093D001400002024000020D9
:101DC00010B50446FB48844209D101218803FFF77E
:101DD000ADFF00214FF48040FFF7A8FF32E0F64846
:101DE000844209D101214804FFF7ADFF00214FF4DF
:101DF0000030FFF7A8FF25E0F048844209D1012117
:101E00008804FFF7A0FF00214FF48020FFF79BFF1D
:101E100018E0EB48844209D10121C804FFF793FF81
:101E200000214FF40020FFF78EFF0BE0E5488442CD
:101E300008D101210805FFF786FF00214FF480102B
:101E4000FFF781FF10BD2DE9F04786B005460E462D
:101E50000024A24600BFA1460027B08900B100BF00
:101E60002F462C8A4CF6FF700440F08804432C82E5
:101E7000AC894EF6F3100440B0883189084371896B
:101E800008430443AC81AC8A4FF6FF400440B0895C
:101E90000443AC8201A8FFF7C2FEC648874202D1C4
:101EA000DDF810A001E0DDF80CA0A88900F40040E6
:101EB00040B10AEBCA0000EB0A1031684900B0FBE0
:101EC000F1F807E00AEBCA0000EB0A10316889005C
:101ED000B0FBF1F86420B8FBF0F0040120096421A4
:101EE00001FB1089A88900F4004040B1322000EBCA
:101EF000C900B0FBF1F000F00700044308E0322015
:101F000000EB09106421B0FBF1F000F00F00044376
:101F10002C8106B0BDE8F0874FF416510160002116
:101F20008180C18001810C21418100218181704724
:101F300010B502460020108A4FF2FF0318400B88AC
:101F40004C8823438C882343CC8823431843108236
:101F500010BD0021018041808180C180704721B186
:101F6000828942F40052828104E082894DF6FF7337
:101F70001A4082817047F0B50346002400260025F0
:101F8000002040F66A17B94200D100BF1846C1F3DD
:101F9000421401F01F06012707FA06F5012C01D1B2
:101FA0000C3004E0022C01D1103000E014301AB1E2
:101FB00007682F43076002E00768AF430760F0BD82
:101FC0001AB1838A0B43838202E0838A8B43838224
:101FD0007047028A4FF6F0731A400282028A0A435F
:101FE0000282704782894FF2FF731A408281828990
:101FF0000A438281704721B1828942F002028281C4
:1020000004E082894FF6FD731A4082817047028A8C
:102010004FF6DF731A400282028A0A430282704737
:1020200021B1028A42F48042028204E0028A4BF625
:10203000FF731A4002827047C1F308028280704722
:1020400001468888C0F308007047818941F001018A
:1020500081817047028BD2B20283028B42EA012255
:1020600002837047028B02F47F420283028B0A4391
:102070000283704721B1828A42F02002828204E00A
:10208000828A4FF6DF731A408282704721B1828ABA
:1020900042F01002828204E0828A4FF6EF731A4007
:1020A0008282704721B1828A42F00802828204E073
:1020B000828A4FF6F7731A408282704721B1828973
:1020C00042F40042828103E08289C2F30E028281DF
:1020D000704721B1828A42F40062828204E0828ADF
:1020E0004FF2FF731A4082827047828A4FF6FB7369
:1020F0001A408282828A0A438282704721B1828A90
:1021000042F00202828204E0828A4FF6FD731A4096
:102110008282704702460020B1F5007F00D100BFE7
:1021200013880B400BB1012000E00020704701F440
:102130000072B2F5007F00D100BFCA430280704731
:1021400070B50246002400230025002040F66A16E0
:10215000B14200D100BFC1F3421501F01F030126B7
:1021600006FA03F3012D02D19689334006E0022DD1
:1021700002D1168A334001E0968A33400C120126C0
:1021800006FA04F41688344013B10CB1012000E0C3
:10219000002070BD10B50022002340F66A14A14251
:1021A00000D100BF0A1201249440A3B2DC43048092
:1021B00010BD0000003801400044004000480040CD
:1021C000004C00400050004010B56FF00400FFF7D5
:1021D00058FA2E4800682E49B0FBF1F02D490870DE
:1021E0000846007800EB4001C1EBC0104FF6FF71CC
:1021F00001EAC0002849088010BD0146254A12782E
:102200004A434FF0E0235A6100229A611A4612694C
:1022100042F001021A6100BF4FF0E022106900F0A5
:1022200001021AB100F48032002AF5D04FF0E0220A
:10223000126922F001024FF0E0231A6100229A6134
:1022400070470146144A12884A434FF0E0235A610E
:1022500000229A611A46126942F001021A6100BF17
:102260004FF0E022106900F001021AB100F4803250
:10227000002AF5D04FF0E022126922F001024FF05F
:10228000E0231A6100229A617047000000000020DC
:1022900000127A00280000202A000020014600BF1A
:1022A000704700BF494A128802F04002002AF9D064
:1022B000C2B2464B1B1D1A80704710B586B004464B
:1022C000012144F20400FFF717FD4FF40070ADF850
:1022D000140003208DF8160018208DF8170005A9AA
:1022E0003B48FFF74DFA4FF48060ADF8140004202E
:1022F0008DF8170005A93648FFF742FA25208DF81A
:10230000000003208DF801008DF8020001208DF8F7
:1023100003006846FFF76BF901940020ADF8080050
:10232000ADF80A00ADF80C00ADF810000C20ADF8C7
:102330000E0001A92548FFF786FD012240F2255134
:102340002248FFF718FE01212048FFF708FE06B0DB
:1023500010BD10B540F225511C48FFF7F1FE10B337
:102360001A48FFF76DFEC4B21A48008800F4004016
:10237000C8B91848008800F4804060B10A2C03D026
:1023800000201449088020E01248008840F40040F2
:102390001049088019E00D2C06D10E48008840F441
:1023A00080400C49088010E00A480088C0F30D0006
:1023B00009490C5407480088401C06490880084613
:1023C0000088C72801DD0020088010BD00380140CA
:1023D0000008014030000020382C002080EA010273
:1023E00010B502F00043400022D04A001FD0010E79
:1023F00001EB1261C0F35600C2F3560240F4000034
:1024000042F40002A0FB022000047F39140400D033
:10241000401C50EA124001D44000491EC2B20C06D2
:1024200004EBD010401C4008802A02D003E00020BA
:1024300010BD20F00100002900DA0020184310BD73
:1024400096230022114600F01DB820F00040C10D77
:10245000C0F3160040F400007F2901DA0020704725
:10246000962903DCC1F19601C8407047963988402F
:1024700070470029A8BF7047401C490008BF20F0E2
:102480000100704710B4B0FA80FC00FA0CF050EA7A
:10249000010404BF10BC704749B1CCF1200421FAFB
:1024A00004F411FA0CF118BF012121430843A3EBF6
:1024B0000C01CB1D4FEA00614FEA102042BF002003
:1024C00010BC704700EBC35010440029A4BF10BCDF
:1024D0007047401C490008BF20F0010010BC704745
:1024E000064C074D06E0E06840F0010394E8070061
:1024F00098471034AC42F6D3FDF71EFE94B30008A3
:10250000B4B30008014A024900F013B8A32200083E
:102510002C00002002E008C8121F08C1002AFAD1CE
:1025200070477047002001E001C1121F002AFBD153
:1025300070472DE9F04116460F460446002503E09A
:102540003946B047641C6D1C20780028F8D1284615
:10255000BDE8F081000003FFFFFFFFFFFFFFFEFF6C
:10256000FFFFFFFFFFFFFF000003FFFFFFFFFFFF75
:10257000FFFEFFFFFFFFFFFFFFFF000003FFFFFF66
:10258000FFFFFFFFFEFFFFFFFFFFFFFFFF0180C315
:10259000FFFFFFFFFFFFFFFEFFFFFFFFFFFFFFFF4C
:1025A000020143FFFFFFFFFFFFFFFEFFFFFFFFFFF3
:1025B000FFFFFF040243FFFFFFFFFFFFFFFEFE7F61
:1025C000FFFFFFFFFFFF040443FFFFFFFFFFFFFFCD
:1025D000FEFEFFFFFFFFFFFFFF040843FFFFFFFFBB
:1025E000FFFFFFFEFEFEFFFFFFFFFFFF041043FFA4
:1025F000FFFFFFFFFFFFFEFE00FFFFFFFFFFFF02E9
:102600002043FFFFFFFFFFFFFFFEFEFEFFFFFFFF78
:10261000FFFF01C1C3FFFFFFFFFFFFFFFEFEFFFF44
:10262000FFFFFFFFFF000003FFFFFFFFFFFFFFFEB5
:10263000FE7FFFFFFFFFFFFF000003FFFFFFFFFF25
:10264000FFFFFEFF83FFFFFFFFFFFF00FE03FFFF13
:10265000FFFFFFFFFFFEFF7DFFFFFFFFFFFF030107
:1026600083FFFFFFFFFFFFFFFEFEFEFFFFFFFFFFF9
:10267000FF040043FFFFFFFFFFFFFFFEFEFEFFFF23
:10268000FFFFFFFF040043FCFFFFFFF3FC0FFEFF13
:102690007DFFFFFFFFFFFF040043FDFFFFFFF3F897
:1026A00007FEFF83FFFFF81FFFFF040043FDFDFF50
:1026B000FFF3F0C3FEFFFFFFFFF00FFFFF030183F7
:1026C000FC01FFFFF3E3F1FEFEFEFFFFE187FFFFEA
:1026D00000FE03FDFDFFFFF3C7F9FEFE00FFFFC78D
:1026E000E20FFF000003FDFFFF3FF307F9FEFE1FAF
:1026F000FFFF8FF3FFFF000003FCFFFF1FFE0FF93A
:10270000FEFFE0FFFE0FF3FFFF0180C3FF07FF8F17
:10271000FC7FF9FEFE1FFFFC1FF207FF020143FED4
:10272000FBFFC780FFF9FEFE00FFFCFFF3FFFF0485
:102730000243FDFDFFE600FFF9FEFEFEFFFCFFF297
:1027400070FF040443FDFDFFFC1CFFF9FEFFFFFFCB
:10275000F8FFF3FFFF040843FEFBFFF87C7FF9FE60
:10276000FF83FFF8FFF3FFFF041043FF07FFF1F8BB
:102770007FF9FEFF7DFFF9FFF201FF022043FFFF1B
:10278000FFF1F0FFF9FEFEFEFFF1FFF3FFFF01C1D5
:10279000C3FDFDFFE3E3FFF9FEFEFEFFE3FFF3FFF2
:1027A000FF000003FC01FFE3C7FFF9FEFF7DFFC749
:1027B000FFF30C7F000003FDFDFFE7C7FFF9FEFFFD
:1027C00083FF8FFFF3FFFF038383FDFDE067CFFFF0
:1027D000F9FEFFFFFF9FFFF3FFFF040043FEFBE056
:1027E000678FFFF9FEFEFEFF3FFFF3007F0400430B
:1027F000FF07FFE79FFFF9FEFE00FF3FFFF3FFFF2C
:10280000041043FFFFFFE79FFFF9FEFEDEFF3FFFDF
:10281000F3FFFF041043FFFFFFE39FFFF9FEFECF2E
:10282000FF3FFFF2187F023043FFFDFFF38FFFF9F8
:10283000FEFED3FF3FFFF3FFFF01C883FFF1FFF16F
:102840008FFFF9FEFF3CFF1FFFF3FFFF000703FFB1
:102850000DFFF8CFFFF9FEFFFEFF9FFFF3007F00A3
:102860000003FCEFFFFC07FFF9FEFEFEFF9FFFF3F6
:10287000FFFF000003FF0DFFE603FFF9FEFE00FF70
:102880008FFFF3FFFF000023FFF1FFC781FFF9FE79
:10289000FEDEFFC7FFF300FF0001C3FFFDFF8FF067
:1028A0001FF9FEFECFFFE3FFF3FFFF000603FDFF6E
:1028B000FF1FFC0FF9FEFED3FFF0FFF2307F001880
:1028C00003FCFFFF3FF307F9FEFF3CFFF83FF3FF78
:1028D000FF006003FD3DFFFFF3C7F9FEFFFEFFFEB3
:1028E0001FF3FFFF018003FFC1FFFFF3E3F1FEFFD2
:1028F00083FFFF8FF201FF0E0003FD3DFFFFF3E1B9
:10290000E3FEFF7DFFFFC7E3FFFF100003FCFFFFB7
:10291000FFF3F007FEFEFEFFFFC3C7FFFF0000034B
:10292000FDFFFFFFF3FC0FFEFEFEFFFFE00FFFFFCA
:10293000000003FFFFFFFFFFFFFFFEFF7DFFFFF82B
:102940001FFFFF000003FFFFFFFFFFFFFFFEFF83EE
:10295000FFFFFFFFFFFF000003FFFFFFFFFFFFFF81
:10296000FEFFFFFFFFFFFFFFFF020043FFFFFFFF30
:10297000FFFFFFFEFEFFFFFFFFFFFFFF020043FF21
:10298000FFFFFFFFFFFFFEFE07FFFFFFFFFFFF0749
:10299000FFC3FFFFFFFFFFFFFFFEFFF0FFFFFFFF93
:1029A000FFFF000043FFFFFFFFFFFFFFFEFE0FFFE3
:1029B000FFFFFFFFFF000043FFFFFFFFFFFFFFFEE2
:1029C000FFF0FFFFFFFFFFFF000003FFFFFFFFFF20
:1029D000FFFFFEFE07FFFFFFFFFFFF000003FFFFFB
:1029E000FFFFFFFFFFFEFEFFFFFFFFFFFFFF0000F7
:1029F00003FFFFFFFFFFFFFFFEFFFFFFFFFFFFFFE4
:102A0000FF000023FFFFFFFFFFFFFFFEFFFFFFFFB1
:102A1000FFFFFFFF0001C3FFFFFFFFFFFFFFFEFF00
:102A2000FFFFFFFFFFFFFF000603FFFFFFFFFFFFAA
:102A3000FFFEFFFFFFFFFFFFFFFF001803FFFFFF89
:102A4000FFFFFFFFFEFFFFFFFFFFFFFFFF00600331
:102A5000FFFFFFFFFFFFFFFEFFFFFFFFFFFFFFFF87
:102A6000018003FFFFFFFFFFFFFFFEFFFFFFFFFFF0
:102A7000FFFFFF0E0003FFFFFFFFFFFFFFFEFFFF53
:102A8000FFFFFFFFFFFF100003FFFFFFFFFFFFFF40
:102A9000FEFFFFFFFFFFFFFFFF000003FFFFFFFF41
:102AA000FFFFFFFEFFFFFFFFFFFFFFFF000003FF31
:102AB000FFFFFFFFFFFFFEFFFFFFFFFFFFFFFF0026
:102AC0000003FFFFFFFBFFFFDFFEFFFFFFFFFFFF36
:102AD000FFFF000003FFFFFFFBFFFFDFFEFFFFFF25
:102AE000FFFFFFFFFF020043FFFFFFFBFFFFDFFED3
:102AF000FFFFFFFFFFFFFFFF020043FFFFFFFBFFA2
:102B0000FF9FFEFFFFFFFFFFFFFFFF07FFC3FFFF6A
:102B1000FFF000001FFEFFFFFFBFFFFDFFFF0000F3
:102B200043FFFFFFE000001FFEFFFFFFBFFFFDFFB1
:102B3000FF000043FFFFFFFFFFFF9FFEFFFFFFBF00
:102B4000FFFDFFFF000003FFFFFFFFFFFFDFFEFFB2
:102B5000FFFFBFFFF9FFFF000003FFFFFFFFFFFFC5
:102B6000DFFEFFFFFF000001FFFF000003FFFFFF8C
:102B7000FFFFFFDFFEFFFFFE000001FFFF0000037D
:102B8000FFFFFFFFFFFFFFFEFFFFFFFFFFF9FFFF5C
:102B9000000003FFFFFFFFFFFFFFFEFFFFFFFFFF40
:102BA000FDFFFF000003FFFFFFFFFFFFFFFEFFFF32
:102BB000FFFFFFFDFFFF000003FFFFFFFFFFFFFF21
:102BC000FEFFFFFFFFFFFDFFFF000003FFFFFFFF12
:102BD000FFFFFFFEFFFFFFFFFFFFFFFF000003FF00
:102BE000FFFFFFE007FFFEFFFFFFFFFFFFFFFF000C
:102BF0000003FFFFFFFF0000FFFEFFFFFFFFFFFFDF
:102C0000FFFF000003FFFFFFFC7CF87FFEFFFFFFDC
:102C1000FFFFFFFFFF000003FFFFFFF9F9FF3FFE8B
:102C2000FFFFFFFFFFFFFFFF000003FFFFFFF3FBBE
:102C3000FFBFFEFFFFFFC3FF8FFFFF000003FFFF8B
:102C4000FFF7F7FFDFFEFFFFFFA3FF07FFFF000017
:102C500003FFFFFFEFF7FFDFFEFFFFFF7FFF03FF35
:102C6000FF000003FFFFFFEFF7FFDFFEFFFFFEFFA8
:102C7000FFFBFFFF000003FFFFFFEFF7FFDFFEFF9B
:102C8000FFFEFFFFFDFFFF000003FFFFFFEFF7FF69
:102C9000DFFEFFFFFEFFDFFDFFFF000003FFFFFF82
:102CA000EFFBFFBFFEFFFFFEFFDFFDFFFF000003A6
:102CB000FFFFFFF0F8FE3FFEFFFFFEFFDFFDFFFF1F
:102CC000000003FFFFFFF8FC007FFEFFFFFE7F9F79
:102CD000FDFFFF000003FFFFFFFFFF01FFFEFFFFFF
:102CE000FF7FAFF9FFFF000003FFFFFFFFFFFFFFC4
:102CF000FEFFFFFF1E6FFBFFFF000003FFFFFFFF54
:102D0000FFFFFFFEFFFFFF8073E7FFFF000003FFF1
:102D1000FFFFFFFFFFFFFEFFFFFFC1F807FFFF0000
:102D20000003FFFFFFFFFFFFFFFEFFFFFFFFFC1F92
:102D3000FFFF000003FFFFFFFFFFFFFFFEFFFFFF9E
:102D4000FFFFFFFFFF000003FFFFFFE3FFFFFFFEAA
:102D5000FFFFFFFFFFFFFFFF000003FFFFFFD9FFA3
:102D6000FFFFFEFFFFFFFFFFFFFFFF000003FFFF6E
:102D7000FF9DFFFFFFFEFFFFFFFFFFFFFFFF0000C4
:102D800003FFFFFFBCFFFFFFFEFFFFFFFFFFFFFF93
:102D9000FF000003FFFFFFDDFFFFFFFEFFFFFE3F21
:102DA000FFFFFFFF000003FFFFFFC1FFFFFFFEFF6C
:102DB000FFFD9FFFFFFFFF000003FFFFFFFFFFFF7F
:102DC000FFFEFFFFF9DFFFFFFFFF000003FFFFFF34
:102DD000FF000FFFFEFFFFFBCFFFFFFFFF00000321
:102DE000FFFFFFFE0003FFFEFFFFFDDFFFFFFFFF12
:102DF000000003FFFFFFF87FE0FFFEFFFFFC1FFF67
:102E0000FFFFFF000003FFFFFFF1FFF87FFEFFFF62
:102E1000FFFFFFFFFFFF000003FFFFFFE3FFFE7F59
:102E2000FEFFFFFFF000FFFFFF000003FFFFFFE7D3
:102E3000FFFF3FFEFFFFFFE0003FFFFF000003FF3B
:102E4000FFFFCFFFFFBFFEFFFFFF87FE0FFFFF006B
:102E50000003FFFFFFCFFFFF9FFEFFFFFF1FFF8766
:102E6000FFFF000003FFFFFFDFFFFF9FFEFFFFFEEE
:102E70003FFFE7FFFF000003FFFFFFDFFFFF9FFEB5
:102E8000FFFFFE7FFFF3FFFF000003FFFFFFDFFFF9
:102E9000FF9FFEFFFFFCFFFFFBFFFF000003FFFFA4
:102EA000FFDFFFFF9FFEFFFFFCFFFFF9FFFF0000BA
:102EB00003FFFFFFDFFFFFBFFEFFFFFDFFFFF9FF87
:102EC000FF000003FFFFFFEFFFFFBFFEFFFFFDFF5F
:102ED000FFF9FFFF000003FFFFFFEFFFFF3FFEFFD3
:102EE000FFFDFFFFF9FFFF000003FFFFFFF7FFFFFC
:102EF0007FFEFFFFFDFFFFF9FFFF040083FFFFFFE1
:102F0000F3FFFEFFFEFFFFFDFFFFFBFFFF0400835B
:102F1000FFFFFFF8FFFDFFFEFFFFFEFFFFFBFFFFD0
:102F20000FFF83FFFFFFF01FFBFFFEFFFFFEFFFF12
:102F3000F3FFFF000083FFFFFFFFFFFFFFFEFFFF28
:102F4000FF7FFFF7FFFF000083FFFFFFFFFFFFFF93
:102F5000FEFFFFFF3FFFEFFFFF000003FFFFFFFF4C
:102F6000FFFFFFFEFFFFFF8FFFDFFFFF000003FFFC
:102F7000FFFFFFFFFFFFFEFFFFFF01FFBFFFFF009F
:102F80000003FFFFFFFFFFFFFFFEFFFFFFFFFFFF4D
:102F9000FFFF030183FFFFFE7FFFFFFFFEFFFFFF39
:102FA000FFFFFFFFFF040283FFFFFDFFFFFFFFFEA8
:102FB000FFFFFFFFFFFFFFFF080483FFFFFBFFFF93
:102FC000FFFFFEFFFFFFFFFFFFFFFF080883FFFF7C
:102FD000FBFFFFFFFFFEFFFFFFFFFFFFFFFF0810EC
:102FE00083FFFFFBFFFFFFFFFEFFFFE7FFFFFFFF8A
:102FF000FF082083FFFFF9FFFFFFFFFEFFFFDFFF5A
:10300000FFFFFFFF044083FFFFFCFFFFFFFFFEFF0A
:10301000FFBFFFFFFFFFFF038383FFFFFC7FFFFF77
:10302000FFFEFFFFBFFFFFFFFFFF000003FFFFFEEC
:103030007FFFFFFFFEFFFFBFFFFFFFFFFF0000035B
:10304000FFFFFF3FFFFFFFFEFFFF9FFFFFFFFFFFB1
:10305000000003FFFFFF9FFFFFFFFEFFFFCFFFFF0B
:10306000FFFFFF000003FFFFFFDFFFFFFFFEFFFF8B
:10307000C7FFFFFFFFFF000003FFFFFFDFFFFFFFB2
:10308000FEFFFFE7FFFFFFFFFF00C183FFFFFFDF42
:10309000FFFFFFFEFFFFF3FFFFFFFFFF00C183FF06
:1030A000FFFFBFFFFFFFFEFFFFF9FFFFFFFFFF0076
:1030B0000003FFFFFE7FFFFFFFFEFFFFFDFFFFFF9F
:1030C000FFFF000003FFFFFFFFFFFFFFFEFFFFFD0D
:1030D000FFFFFFFFFF000003FFFFFFFFFFFFFFFEFB
:1030E000FFFFFDFFFFFFFFFF000003FFFFFFFC1FCF
:1030F000FF1FFEFFFFFBFFFFFFFFFF000003FFFFBF
:10310000FFF81FFE1FFEFFFFE7FFFFFFFFFF01FCB1
:1031100003FFFFFFF31FFD9FFEFFFFFFFFFFFFFF0A
:10312000FF060303FFFFFFF7FFFB9FFEFFFFFFFF0D
:10313000FFFFFFFF080083FFFFFFEFFFF79FFEFF8A
:10314000FFFFC1FFF1FFFF080083FFFFFFEFFFEF6D
:103150009FFEFFFFFF81FFE1FFFF080083FFFFFFEE
:10316000EFFFDF9FFEFFFFFF31FFD9FFFF08008366
:10317000FFFFFFEFFFBF9FFEFFFFFF7FFFB9FFFFD6
:10318000060303FFFFFFEFFF7F9FFEFFFFFEFFFF32
:1031900079FFFF01FC03FFFFFFE7FEFF9FFEFFFF3C
:1031A000FEFFFEF9FFFF000003FFFFFFF7F9FF9F9F
:1031B000FEFFFFFEFFFDF9FFFF000003FFFFFFF32F
:1031C000E1FF1FFEFFFFFEFFFBF9FFFF01FC03FF16
:1031D000FFFFF807FE1FFEFFFFFEFFF7F9FFFF06E8
:1031E0000303FFFFFFFC1FF87FFEFFFFFE7FEFF9E9
:1031F000FFFF080083FFFFFFFFFFFFFFFEFFFFFF52
:103200007F9FF9FFFF080083FFFFFFFFFFFFFFFE27
:10321000FFFFFF3E1FF1FFFF080083FFFFFFFFFFDF
:10322000FFFFFEFFFFFF807FE1FFFF080083FFFF3E
:10323000FFFFFFF8FFFEFFFFFFC1FF87FFFF060351
:1032400003FFFFFFFE00F07FFEFFFFFFFFFFFFFF1A
:10325000FF01FC03FFFFFFE0FCF1BFFEFFFFFFFFEC
:10326000FFFFFFFF000003FFFFFFE7FBFFBFFEFFC5
:10327000FFFFFFFFFFFFFF000003FFFFFFE7F3FF7C
:10328000DFFEFFFFFFFFFFFFFFFF000003FFFFFF69
:10329000E7F7FFDFFEFFFFFFFFFFFFFFFF00000379
:1032A000FFFFFFE7F7FFDFFEFFFFFFBFFFFDFFFFB1
:1032B000000003FFFFFFE7F7FFDFFEFFFFFFBFFF99
:1032C000FDFFFF000003FFFFFFE7F7FFDFFEFFFF4B
:1032D000FFBFFFFDFFFF000003FFFFFFE7F7FF9FBA
:1032E000FEFFFFFFBFFFF9FFFF000003FFFFFFE747
:1032F000FBFF3FFEFFFFFF000001FFFF000003FF99
:10330000FFFFE7F8FE3FFEFFFFFE000001FFFF00AA
:103310000003FFFFFFE7FC00FFFEFFFFFFFFFFF9D9
:10332000FFFF000003FFFFFFE7FF01FFFEFFFFFFBE
:10333000FFFFFDFFFF000003FFFFFFFFFFFFFFFE9A
:10334000FFFFFFFFFFFDFFFF000003FFFFFFFFFF89
:10335000FFFFFEFFFFFFFFFFFDFFFF000003FFFF7A
:10336000FFFFFFFFFFFEFFFFFFFFFFFFFFFF00006C
:1033700003FFFFFFFFFFFFFFFEFFFFFFFFFFFFFF5A
:10338000FF000003FFFFFFFFFFFFFFFEFFFFFFFF48
:10339000FFFFFFFF000003FFFFFFE3FFFFFFFEFF54
:1033A000FFFFFFFFFFFFFF000003FFFFFFD9FFFF4D
:1033B000FFFEFFFFFFFFFFFFFFFF000003FFFFFF18
:1033C0009DFFFFFFFEFFFFFFFFFFFFFFFF0000036A
:1033D000FFFFFFBCFFFFFFFEFFFFFFFFFFFFFFFF41
:1033E000000003FFFFFFDDFFFFFFFEFFFFFE3FFFCB
:1033F000FFFFFF000003FFFFFFC1FFFFFFFEFFFF16
:10340000FD9FFFFFFFFF000003FFFFFFFFFFFFFF28
:10341000FEFFFFF9DFFFFFFFFF000003FFFFFFFFDD
:10342000000FFFFEFFFFFBCFFFFFFFFF000003FFCA
:10343000FFFFFE0003FFFEFFFFFDDFFFFFFFFF00BA
:103440000003FFFFFFF87FE0FFFEFFFFFC1FFFFF11
:10345000FFFF000003FFFFFFF1FFF87FFEFFFFFF0C
:10346000FFFFFFFFFF000003FFFFFFE3FFFE7FFE04
:10347000FFFFFFF000FFFFFF000003FFFFFFE7FF7C
:10348000FF3FFEFFFFFFE0003FFFFF000003FFFFE5
:10349000FFCFFFFFBFFEFFFFFF87FE0FFFFF000014
:1034A00003FFFFFFCFFFFF9FFEFFFFFF1FFF87FF11
:1034B000FF000003FFFFFFDFFFFF9FFEFFFFFE3F58
:1034C000FFE7FFFF000003FFFFFFDFFFFF9FFEFF9F
:1034D000FFFE7FFFF3FFFF000003FFFFFFDFFFFFA3
:1034E0009FFEFFFFFCFFFFFBFFFF000003FFFFFF4E
:1034F000DFFFFF9FFEFFFFFCFFFFF9FFFF00000360
:10350000FFFFFFDFFFFFBFFEFFFFFDFFFFF9FFFF34
:10351000000003FFFFFFEFFFFFBFFEFFFFFDFFFF08
:10352000F9FFFF000003FFFFFFEFFFFF3FFEFFFF7C
:10353000FDFFFFF9FFFF000003FFFFFFF7FFFF7F25
:10354000FEFFFFFDFFFFF9FFFF000003FFFFFFF39A
:10355000FFFEFFFEFFFFFDFFFFFBFFFF000003FF7D
:10356000FFFFF8FFFDFFFEFFFFFEFFFFFBFFFF0079
:103570000003FFFFFFF01FFBFFFEFFFFFEFFFFF357
:10358000FFFF000003FFFFFFFFFFFFFFFEFFFFFF46
:103590007FFFF7FFFF000003FFFFFFFFFFFFFFFEBE
:1035A000FFFFFF3FFFEFFFFF000003FFFFFFFFFFF5
:1035B000FFFFFEFFFFFF8FFFDFFFFF000003FFFFA6
:1035C000FFFFFFFFFFFEFFFFFF01FFBFFFFF000048
:1035D00003FFFFFFFFFFFFFFFEFFFFFFFFFFFFFFF8
:1035E000FF000003FFFFFFFFFFFFFFFEFFFFFFFFE6
:1035F000FFFFFFFF000003FFFFFFFFFFFFFFFEFFD6
:10360000FFFFFFFFFFFFFF000003FFFFFFFFFFFFC4
:10361000FFFEFFFFFFFFFFFFFFFF000003FFFFFFB5
:10362000FFFFFFFFFEFFFFFFFFFFFFFFFF000003A5
:10363000FFFFFFFFFFFFFFFEFFFFFFFFFFFFFFFF9B
:10364000000003FFFFFFF7F7FFFFFEFFFFFFFFFF95
:10365000FFFFFF000003FFFFFFF7F7FFFFFEFFFF85
:10366000FFFFFFFFFFFF000003FFFFFFE007FFFF7B
:10367000FEFFFFFDFDFFFFFFFF000003FFFFFFFF59
:10368000F7FFFFFEFFFFFDFDFFFFFFFF000003FF51
:10369000FFFFFFF7FFFFFEFFFFF801FFFFFFFF0047
:1036A0000003FFFFFFFFFFFFFFFEFFFFFFFDFFFF28
:1036B000FFFF000003FFFFFFFFFFFFFFFEFFFFFF15
:1036C000FDFFFFFFFF000003FFFFFFF81FFFFFFEEE
:1036D000FFFFFFFFFFFFFFFF000003FFFFFFF7EF0C
:1036E000FFFFFEFFFFFFFFFFFFFFFF000003FFFFE5
:1036F000FFEFF7FFFFFEFFFFFFFFFFFFFFFF0000F1
:1037000003FFFFFFEFF7FFFFFEFFFFFE07FFFFFFD7
:10371000FF000003FFFFFFF7EFFFFFFEFFFFFDFBD2
:10372000FFFFFFFF000003FFFFFFF81FFFFFFEFF8B
:10373000FFFBFDFFFFFFFF000003FFFFFFFFFFFF99
:10374000FFFEFFFFFBFDFFFFFFFF000003FFFFFF8A
:10375000FFFFFFFFFEFFFFFDFBFFFFFFFF0000037A
:10376000FFFFFFF81FFFFFFEFFFFFE07FFFFFFFF4A
:10377000000003FFFFFFF7EFFFFFFEFFFFFFFFFF6C
:10378000FFFFFF000003FFFFFFEFF7FFFFFEFFFF5C
:10379000FFFFFFFFFFFF000003FFFFFFEFF7FFFF4B
:1037A000FEFFFFFDFDFFFFFFFF000003FFFFFFF730
:1037B000EFFFFFFEFFFFFDFDFFFFFFFF000003FF28
:1037C000FFFFF81FFFFFFEFFFFF801FFFFFFFF00F5
:1037D0000003FFFFFFFFFFFFFFFEFFFFFFFDFFFFF7
:1037E000FFFF000003FFFFFFFFFFFFFFFEFFFFFFE4
:1037F000FDFFFFFFFF000003FFFFFFF7F7FFFFFEE6
:10380000FFFFFFFFFFFFFFFF000003FFFFFFF7F7D2
:10381000FFFFFEFFFFFFFFFFFFFFFF000003FFFFB3
:10382000FFE007FFFFFEFFFFFCF3FFFFFFFF0000CD
:1038300003FFFFFFFFF7FFFFFEFFFFFBFDFFFFFFA3
:10384000FF000003FFFFFFFFF7FFFFFEFFFFFBBDD1
:10385000FFFFFFFF000003FFFFFFFFFFFFFFFEFF73
:10386000FFFBBDFFFFFFFF000003FFFFFFEFF7FFC0
:10387000FFFEFFFFFB5DFFFFFFFF000003FFFFFFF9
:10388000E007FFFFFEFFFFFCE3FFFFFFFF00000379
:10389000FFFFFFEEF7FFFFFEFFFFFFFFFFFFFFFF52
:1038A000000003FFFFFFFEFFFFFFFEFFFFFBFDFF2A
:1038B000FFFFFF000003FFFFFFEEF7FFFFFEFFFF2C
:1038C000F801FFFFFFFF000003FFFFFFE007FFFF1E
:1038D000FEFFFFFBBDFFFFFFFF000003FFFFFFEF49
:1038E000F7FFFFFEFFFFFFBFFFFFFFFF000003FF2B
:1038F000FFFFFFFFFFFFFEFFFFFBBDFFFFFFFF001E
:103900000003FFFFFFFDFDFFFFFEFFFFF801FFFFCC
:10391000FFFF000003FFFFFFFC01FFFFFEFFFFFBB7
:10392000FDFFFFFFFF000003FFFFFFFEEDFFFFFEB7
:10393000FFFFFFFFFFFFFFFF000003FFFFFFFDF79B
:10394000FFFFFEFFFFFF7F7FFFFFFF07FF03FFFF7C
:10395000FFFDF7FFFFFEFFFFFF007FFFFFFF07FFF9
:1039600003FFFFFFFDF7FFFFFEFFFFFFBB7FFFFF32
:10397000FF07FF03FFFFFFFE0FFFFFFEFFFFFF7DBF
:10398000FFFFFFFF070703FFFFFFFFFFFFFFFEFF34
:10399000FFFF7DFFFFFFFF07FF03FFFFFFFFFFFFAD
:1039A000FFFEFFFFFF7DFFFFFFFF07FF03FFFFFF9E
:1039B000FECFFFFFFEFFFFFF83FFFFFFFF070703B1
:1039C000FFFFFFFDB7FFFFFEFFFFFFFFFFFFFFFF52
:1039D00007FF03FFFFFFFDB7FFFFFEFFFFFFFFFF36
:1039E000FFFFFF07FF03FFFFFFFD6FFFFFFEFFFF6E
:1039F000FFB3FFFFFFFF070703FFFFFFFE07FFFF08
:103A0000FEFFFFFF6DFFFFFFFF07FF03FFFFFFFF4D
:103A1000F7FFFFFEFFFFFF6DFFFFFFFF07FF03FF45
:103A2000FFFFFFFFFFFFFEFFFFFF5BFFFFFFFF0644
:103A30000303FFFFFFFFFFFFFFFEFFFFFF81FFFF0D
:103A4000FFFF060303FFFFFFFFFFFFFFFEFFFFFF78
:103A5000FDFFFFFFFF060303FFFFFFFFFFFFFFFE6A
:103A6000FFFFFFFFFFFFFFFF060303FFFFFFFFFF57
:103A7000FFFFFEFFFFFFFFFFFFFFFF060303FFFF48
:103A8000FFFFFFFFFFFEFFFFFFFFFFFFFFFF06033C
:103A900003FFFFFFFFFFFFFFFEFFFFFFFFFFFFFF33
:103AA000FF060303FFFFFFFFFFFFFFFEFFFFFFFF18
:103AB000FFFFFFFF060303FFFFFFFFFFFFFFFEFF08
:103AC000FFFFFFFFFFFFFF07FF03FFFFFFFFFFFFFA
:103AD000FFFEFFFFFFFFFFFFFFFF07FF03FFFFFFEB
:103AE000FFFFFFFFFEFFFFFFFFFFFFFFFF00FC03E5
:103AF000FFFFFFFFFFFFFFFEFFFFFFFFFFFFFFFFD7
:103B0000000003FFFFFFFFFFFFFFFEFFFFFFFFFFC0
:103B1000FFFFFF000003FFFFFFFFFFFFFFFEFFFFB0
:103B2000FFFFFFFFFFFF000003FFFFFFFFFFFFFF9F
:103B3000FEFFFFFFFFFFFFFFFF000003FFFFFFFF90
:103B4000FFFFFFFEFFFFFFFFFFFFFFFFFFFFFFFF86
:103B5000FFFFFFFFFFFFFFFFFFFFFFFFFFFFFFFF75
:103B6000FFFFFFFFFFFFFFFFFFFFFFFFFFFFFFFF65
:103B7000FFFFFFFFFFFFFFFFFFFFFFFFFFFFFFFF55
:103B8000FFFFFFFFFFFFFFFFFFFFFFFFFFFFFFFF45
:103B9000FFFFFFFFFFFFFFFFFFFFFFFFFFFFFFFF35
:103BA000FFFFFFFFFFFFFFFFFFFFFFFFFFFFFFFF25
:103BB000FFFFFFFFFFFFFFFFFFFFFFFFFFFFFFFF15
:103BC000FFFFFFFFFFFFFFFFFFFFFFFFFFFFFFFF05
:103BD000FFFFFFFFFFFFFFFFFFFFFFFFFFFFFFFFF5
:103BE000FFFFFFFFFFFFFFFFFFFFFFFFFFFFFFFFE5
:103BF000FFFFFFC7FFFFFFFFFFFFFFFFFFFFFFFE0E
:103C00001FC7FFFFFFFFFFFFFFFFFFFFFFFE1F07B5
:103C1000FFFFFFFFFFFFFFFFFFFFFFFE7C07FFFF30
:103C2000FFFFFFFFFFFFFFFFFFFE7807FFFFFFFF24
:103C3000FFFFFFFFFFFFFFFE6007FFFFFFFFFFFF2C
:103C4000FFFFFFFFFFFE0067FFFFFFFFFFFFFFFF1C
:103C5000FFFFFFFE01E7FFFFFFFFFFFFFFFFFFFF8B
:103C6000FFFE03C7FFFFFFFFFFFFFFFFFFFFFFFE9A
:103C70000FC7FFFFFFFFFFFFFFFFFFFFFFFE3F0735
:103C8000FFFFFFFFFFFFFFFFFFFFFFFE3F07FFFFFD
:103C9000FFFFFFFFFFFFFFFFFFFFFFFFFFFFFFFF34
:103CA000FFFFFFFFFFFFFFFFFFFFFFFFFFFFFFFF24
:103CB000FFFFFFFFFFFE7FE7FFFFFFFFFFFFFFFFAD
:103CC000FFFFFFFE0007FFFFFFFFFFFFFFFFFFFFFC
:103CD000FFFE0007FFFFFFFFFFFFFFFFFFFFFFFEED
:103CE0000007FFFFFFFFFFFFFFFFFFFFFFFE73E780
:103CF000FFFFFFFFFFFFFFFFFFFFFFFE73E7FFFF79
:103D0000FFFFFFFFFFFFFFFFFFFFF3FFFFFFFFFFCF
:103D1000FFFFFFFFFFFFFFFE73E7FFFFFFFFFFFF58
:103D2000FFFFFFFFFFFE0007FFFFFFFFFFFFFFFF9B
:103D3000FFFFFFFE0007FFFFFFFFFFFFFFFFFFFF8B
:103D4000FFFE0007FFFFFFFFFFFFFFFFFFFFFFFE7C
:103D50007FE7FFFFFFFFFFFFFFFFFFFFFFFE7FE7A4
:103D6000FFFFFFFFFFFFFFFFFFFFFFFFFFFFFFFF63
:103D7000FFFFFFFFFFFFFFFFFFFFFFFFFFFFFFFF53
:103D8000FFFFFFFFFFFFFFFFC07FFFFFFFFFFFFF02
:103D9000FFFFFFFFFFFF801FFFFFFFFFFFFFFFFF92
:103DA000FFFFFFFF001FFFFFFFFFFFFFFFFFFFFF02
:103DB000FFFF000FFFFFFFFFFFFFFFFFFFFFFFFE03
:103DC0003FCFFFFFFFFFFFFFFFFFFFFFFFFE7FE78C
:103DD000FFFFFFFFFFFFFFFFFFFFFFFEFFE7FFFF0C
:103DE000FFFFFFFFFFFFFFFFFFFEFFE7FFFFFFFFFC
:103DF000FFFFFFFFFFFFFFFE7FEFFFFFFFFFFFFF64
:103E0000FFFFFFFFFFFE3F8FFFFFFFFFFFFFFFFFF3
:103E1000FFFFFFFF000FFFFFFFFFFFFFFFFFFFFFA1
:103E2000FFFF801FFFFFFFFFFFFFFFFFFFFFFFFF01
:103E3000801FFFFFFFFFFFFFFFFFFFFFFFFFC07FB0
:103E4000FFFFFFFFFFFFFFFFFFFFFFFFFFFFFFFF82
:103E5000FFFFFFFFFFFFFFFFFFFE7FE7FFFFFFFF0B
:103E6000FFFFFFFFFFFFFFFE7FE7FFFFFFFFFFFFFB
:103E7000FFFFFFFFFFFE7FE7FFFFFFFFFFFFFFFFEB
:103E8000FFFFFFFE0007FFFFFFFFFFFFFFFFFFFF3A
:103E9000FFFE1FE7FFFFFFFFFFFFFFFFFFFFFFFE2C
:103EA0000FE7FFFFFFFFFFFFFFFFFFFFFFFF03FF26
:103EB000FFFFFFFFFFFFFFFFFFFFFFFF80FFFFFF91
:103EC000FFFFFFFFFFFFFFFFFFFFC0FFFFFFFFFF41
:103ED000FFFFFFFFFFFFFFFFE03FFFFFFFFFFFFFD1
:103EE000FFFFFFFFFFFE780FFFFFFFFFFFFFFFFF5A
:103EF000FFFFFFFE7E0FFFFFFFFFFFFFFFFFFFFF44
:103F0000FFFE000FFFFFFFFFFFFFFFFFFFFFFFFEB2
:103F1000000FFF0000007E0000000001FFFE7FFF99
:103F2000FF0000007C0000000000FFFEFFFFFF001C
:103F300000007C0000000000FFFFF0FFFF00000019
:103F40007C0000000000FFFFE07FFF0000007C001D
:103F500000000000FFFF801FFF0000007C00000049
:103F60000000FFFF000FFF0000007C0000000000C9
:103F7000FFFF000FFF0000007C0000000000FFFEBC
:103F80003F8FFF0000007C0000000000FFFE7FE785
:103F9000FF0000007C0000000000FFFEFFE7FF00C4
:103FA00000007C0000000000FFFEF9E7FF000000B9
:103FB0007C0000000000FFFE78C7FF0000007C00CE
:103FC00000000000FFFE380FFF0000007C00000032
:103FD0000000FFFE180FFF0000007C000000000042
:103FE000FFFFF8FFFF0000FFFC0001FE0000FFFFE5
:103FF000F9FFFF0000FFFC0001FE0000FFFFF9FFDA
:10400000FF0000FFFC0001FE0000FFFFFF1FFF009C
:1040100000FFFC0001FE0000FFFFFE0FFF0000FF9D
:10402000FC0001FE0000FFFFFE07FF0000FFFC0098
:1040300001FE0000FFFFFE27FF0000FFFC0001FE65
:104040000000FFFEFFE7FF0000FFFC0001FE000094
:10405000FFFE7FE7FF0000FFFC0001FE0000FFFE07
:104060000007FF0000FFFC0001FE0000FFFE00074C
:10407000FF0000FFFC0001FE0000FFFE000FFF003C
:1040800000FFFC0001FE0000FFFE001FFF0000FF1C
:10409000FC0001FE0000FFFE7FFFFF0000FFFC00B0
:1040A00001FE0000FFFEFFFFFF0000FFFC0001FE1D
:1040B0000000FFFFFFFFFF0000FFFC0001FE00000B
:1040C000FFFEFFE7FF0000FFFC0001FE0000FFFE17
:1040D0007FE7FF0000FFFC0001FE0000FFFE00077D
:1040E000FF000000000001FE0000FFFE0007FF00CF
:1040F0000000000001FE0000FFFE0007FF000000BE
:10410000000001FE0000FFFE0007FF0000000000AD
:1041100001FE0000FFFE7FE7FF000000000001FE3F
:104120000000FFFEFFE7FF000000000001FE0000AE
:10413000FFFFFFFFFF000000000001FE0000FFFE88
:10414000FFE7FF000000000001FE0000FFFE7FE728
:10415000FF000000000001FE0000FFFE0007FF005E
:104160000000000001FE0000FFFE3FE7FF0000002E
:10417000000001FE0000FFFE1FE7FF00000000003E
:1041800001FE0000FFFF07E7FF000000000001FE46
:104190000000FFFF83FFFF000000000001FE0000A1
:1041A000FFFF80FFFF000000000001FE0000FFFF96
:1041B000E07FFFFFFFFFFFFFFFFE0000FFFFF01F9C
:1041C000FFFFFFFFFFFFFFFE0000FFFE780FFFFF76
:1041D000FFFFFFFFFFFE0000FFFE7E0FFFFFFFFF60
:1041E000FFFFFFFE0000FFFE000FFFFFFFFFFFFFCE
:1041F000FFFE0000FFFE000FFFFFFFFFFFFFFFFEBF
:104200000000FFFE7FFFFFFFFFFFFFFFFFFE00003C
:10421000FFFFFFFFFFFFFFFFFFFFFFFE0000FFFFAD
:10422000F1FFFF0000FC000000000000FFFF803FE6
:10423000FF0000FC000000000000FFFF801FFF00E7
:1042400000FC000000000000FFFF000FFF0000FC6A
:10425000000000000000FFFF000FFF0000FC000056
:1042600000000000FFFE7FCFFF0000FC0000000008
:104270000000FFFE7FE7FF0000FC000000000000E0
:10428000FFFEF9E7FF0000FC000000000000FFFE59
:10429000F9E7FF0000FC000000000000FFFE78C707
:1042A000FF0000FC000000000000FFFF3807FF00D7
:1042B00000FC000000000000FFFE1807FF0000FCEB
:1042C000000000000000FFFFF9FFFF0000FC0000FD
:1042D00000000000FFFFF9FFFF0000FC00000000ED
:1042E0000000FFFEFFFFFF0000FC000000000000D8
:1042F000FFFE7FFFFFFFFFFFFFFFFFFFFFFFFFFE50
:104300003FFFFFFFFFFFFFFFFFFFFFFFFFFE1FE776
:10431000FFFFFFFFFFFFFFFFFFFFFFFE07E7FFFFBE
:10432000FFFFFFFFFFFFFFFFFFFE0007FFFFFFFF95
:10433000FFFFFFFFFFFFFFFEC007FFFFFFFFFFFFC5
:10434000FFFFFFFFFFFEE007FFFFFFFFFFFFFFFF95
:10435000FFFFFFFEE007FFFFFFFFFFFFFFFFFFFF85
:10436000FFFEC7E7FFFFFFFFFFFFFFFFFFFFFFFEAF
:104370000FE7FFFFFFFFFFFFFFFFFFFFFFFE3FFF16
:10438000FFFFFFFFFFFFFFFFFFFFFFFE7FFFFFFFBE
:10439000FFFFFFFFFFFFFFFFFFFE7FFFFFFFFFFFAE
:1043A000FFFFFFFFFFFFFFFFFFFFFFFFFFFFFFFF1D
:1043B000FFFFFFFFFFFEFFFFFFFFFFFFFFFFFFFF0E
:1043C000FFFFFFFE7FFFFFFFFFFFFFFFFFFFFFFF7E
:1043D000FFFE001FFFFFFFFFFFFFFFFFFFFFFFFECE
:1043E000000FFFFFFFFFFFFFFFFFFFFFFFFE000FBC
:1043F000FFFFFFFFFFFFFFFFFFFFFFFE7FC7FFFF86
:10440000FFFFFFFFFFFFFFFFFFFEFFE7FFFFFFFFD5
:10441000FFFFFFFFFFFFFFFEFFE7FFFFFFFFFFFFC5
:10442000FFFFFFFFFFFFFFE7FFFFFFFFFFFFFFFFB4
:10443000FFFFFFFEFFE7FFFFFFFFFFFFFFFFFFFFA5
:10444000FFFE7FE7FFFFFFFFFFFFFFFFFFFFFFFE16
:10445000000FFFFFFFFFFFFFFFFFFFFFFFFE003F1B
:10446000FFFFFFFFFFFFFFFFFFFFFFFE7FFFFFFFDD
:10447000FFFFFFFFFFFFFFFFFFFEFFE7FFFFFFFF65
:10448000FFFFFFFFFFFFFFFFFFE7FFFFFFFFFFFF54
:10449000FFFFFFFFFFFFFFC7FFFFFFFFFFFFFFFF64
:1044A000FFFFFFFFFE07FFFFFFFFFFFFFFFFFFFF15
:1044B000FFFFF867FFFFFFFFFFFFFFFFFFFFFFFFAB
:1044C000C0E7FFFFFFFFFFFFFFFFFFFFFFFF0EFF44
:1044D000FFFFFFFFFFFFFFFFFFFFFFFE0EFFFFFFDE
:1044E000FFFFFFFFFFFFFFFFFFFE00E7FFFFFFFFF4
:1044F000FFFFFFFFFFFFFFFF0067FFFFFFFFFFFF63
:10450000FFFFFFFFFFFFC007FFFFFFFFFFFFFFFFF2
:10451000FFFFFFFFF007FFFFFFFFFFFFFFFFFFFFB2
:10452000FFFFFE07FFFFFFFFFFFFFFFFFFFFFFFF94
:10453000FF87FFFFFFFFFFFFFFFFFFFFFFFFFFE71B
:10454000FFFFFFFFFFFFFFFFFFFFFFFFFFFFFFFF7B
:10455000FFFFFFFFFFFFFFFFFFFFFFFFFFFFFFFF6B
:10456000FFFFFFFFFFFFFFFE7FE7FFFFFFFFFFFFF4
:10457000FFFFFFFFFFFE0007FFFFFFFFFFFFFFFF43
:10458000FFFFFFFE0007FFFFFFFFFFFFFFFFFFFF33
:10459000FFFE1FE7FFFFFFFFFFFFFFFFFFFFFFFE25
:1045A00007E7FFFFFFFFFFFFFFFFFFFFFFFF01FF29
:1045B000FFFFFFFFFFFFFFFFFFFFFFFFC07FFFFFCA
:1045C000FFFFFFFFFFFFFFFFFFFFF01FFFFFFFFFEA
:1045D000FFFFFFFFFFFFFFFEF81FFFFFFFFFFFFFD3
:1045E000FFFFFFFFFFFE7E07FFFFFFFFFFFFFFFF55
:1045F000FFFFFFFE0007FFFFFFFFFFFFFFFFFFFFC3
:10460000FFFE7FFFFFFFFFFFFFFFFFFFFFFFFFFE3C
:104610007FFFFFFFFFFFFFFFFFFFFFFFFFFFFFFF2A
:10462000FFFFFFFFFFFFFFFFFFFFFFFFFFFFFFFF9A
:10463000FFFFFFFFFFFFFFFFFFFFFFFFFFFFFFFF8A
:10464000FFFFFFFFFFFFFFFFFFFFFFFFFFFFFFFF7A
:10465000FFFFFFFFFFFFFFFFFFFFFFFFFFFFFFFF6A
:10466000FFFFFFFFFFFFFFFFFFFFFFFFFFFFFFFF5A
:10467000FFFFFFFFFFFFFFFFFFFFFFFFFFFFFFFF4A
:10468000FFFFFFFFFFFFFFFFFFFFFFFFFFFFFFFF3A
:10469000FFFFFFFFFFFFFFFFFFFFFFFFFFFFFFFF2A
:1046A000FFFFFFFFFFFFFFFFFFFFFFFFFFFFFFFF1A
:1046B000FFFFFFFFFFFFFFFFFFFFFFFFFFFFFFFF0A
:1046C000FFFFFFFFFFFFFFFFFFFFFFFFFFFFFFFFFA
:1046D000FFFFFFFFFFFFFFFFFFFFFFFFFFFFFFFFEA
:1046E000FFFFFFFFFFFFFFFFFFFFFFFFFFFFFFFFDA
:1046F000FFFFFFFFFFFFFFFFFFFFFFFFFFFFFFFFCA
:10470000FFFFFFFFFFFFFFFFFFFFFFFFFFFFFFFFB9
:10471000FFFFFFFFFFFFFFFFFFFFFFFF00000000A5
:104720000000000000000000000000000000007F0A
:10473000FFFFFFFFFFFFFFFFFFFFFFFFFFFFFFFF89
:10474000FFFE40000000003FFFFFFFFFFFFFFFFFF5
:10475000FFFFFFFFFE40000000003FFFFFFFFFFFE5
:10476000FFFFFFFFFFFFFFFE40000000003FFFFFD5
:10477000FFFFFFFFFFFFFFFFFFFFFE400000000005
:104780003FFFFFFFFFFFFFFFFFFFFFFFFFFE4000B8
:104790000000003FFFFFFFFFFFFFFFFFFFFFFFFFE6
:1047A000FE40000000003FFFFFFFFFFFFFFFFFFF95
:1047B000FFFFFFFE40000000003FFFFFFFFFFFFF85
:1047C000FFFFFFFFFFFFFE40000001003FFFFFFF74
:1047D000FFFFFFFFFFFFFFFFFFFE40180007003F46
:1047E000FFFFFFFFFFFFFFFFFFFFFFFFFE40F000A7
:1047F0001F003FE0000000E0000000E0000000FEBD
:1048000040E0007D003FE0000000E0000000E0002C
:104810000000FE40C000F1003FE7FFFFFCE7FFFFA4
:10482000FCE7FFFFFCFE408003C1003FE7FFFFFC09
:10483000E7FFFFFCE7FFFFFCFE40800F01003FE7C2
:10484000FFFFFCE7FFFFFCE7FFFFFCFE40803C01B1
:10485000003FE7E3F9FCE7FFFFFCE7FFFFFCFE405A
:1048600080F001003FE7DFF5FCE7FFFFFCE7FFFF1B
:10487000FCFE4083C001003FE7BFEDFCE7FFFFFC0B
:10488000E7FFFFFCFE408F0001003FE7BFDDFCE7D4
:10489000FFFFFCE7FFFFFCFE40BE0003003FE7BF59
:1048A000BDFCE7E3F9FCE7FFFFFCFE40F800070072
:1048B0003FE7BF7DFCE7DFF5FCE7FFFFFCFE40E0E4
:1048C000000F003FE7DEFDFCE7BFEDFCE7EFFEFC7D
:1048D000FE40800030003FE7E1F1FCE7BFDDFCE790
:1048E000E000FCFE40000000003FE7FFFFFCE7BFE8
:1048F000BDFCE7EFFEFCFE40000000003FE7FFFFCD
:10490000FCE7BF7DFCE7EFFEFCFE40800001003FBE
:10491000E7FFF9FCE7DEFDFCE7EFFEFCFE40800070
:1049200001003FE7FFF9FCE7E1F1FCE7EFFEFCFEE9
:1049300040FFFFFF003FE7FFFFFCE7FFFFFCE7F75B
:10494000FDFCFE40FFFFFF003FE7FFFFFCE7FFFF2E
:10495000FCE7FBFBFCFE40801001003FE7FFFFFC93
:10496000E7E0FFFCE7FC07FCFE40801001003FE7AA
:10497000FFFFFCE7DF73FCE7FFFFFCFE40001000D9
:10498000003FE7FFFFFCE7BFBDFCE7EFFEFCFE409A
:10499000001000003FE7FFFFFCE7BFBDFCE7E000C1
:1049A000FCFE40001000003FE7FFFFFCE7BFBDFC3E
:1049B000E7EF7EFCFE40001000003FE7FFFFFCE752
:1049C000BF7BFCE7EF7FFCFE40001000003FE7F0FC
:1049D0000FFCE7CEE7FCE7EF3FFCFE408010010054
:1049E0003FE7EEF3FCE7F01FFCE7EF4FFCFE4080F3
:1049F0001001003FE7DDFDFCE7FFFFFCE7F6F3FCFD
:104A0000FE40FFFFFF003FE7BDFDFCE7FFFFFCE7C7
:104A1000F9FCFCFE40FFFFFF003FE7BDFDFCE7F0B7
:104A20000FFCE7FFFEFCFE40800001003FE7BDFDFC
:104A3000FCE7EEF3FCE7FFFFFCFE40800001003FD7
:104A4000E7CEFBFCE7DDFDFCE7FFFFFCFE400000DE
:104A500000003FE7FF07FCE7BDFDFCE7EFFEFCFEC3
:104A600040000000003FE7FFFFFCE7BDFDFCE7EF73
:104A7000FEFCFE40000000003FE7FFFFFCE7BDFD3D
:104A8000FCE7EFFEFCFE4001FF80003FE7FFFFFC7C
:104A9000E7CEFBFCE7E000FCFE4007FFE0003FE75D
:104AA000F00FFCE7FF07FCE7EFFEFCFE401E00787E
:104AB000003FE7EEF3FCE7FFFFFCE7EFFEFCFE4004
:104AC00030000C003FE7DDFDFCE7FFFFFCE7EFFEF9
:104AD000FCFE40600006003FE7BDFDFCE7F99FFCDF
:104AE000E7FFFFFCFE40C00002003FE7BDFDFCE722
:104AF000F99FFCE7FFFFFCFE40800001003FE7BD9F
:104B0000FDFCE7FDBFFCE7EFFFFCFE40800001007D
:104B10003FE7CEFBFCE7FE7FFCE7E3FFFCFE4080C7
:104B20000001003FE7FF07FCE7E007FCE7EC3FFC84
:104B3000FE40800001003FE7FFFFFCE7FE7FFCE74F
:104B4000FFC7FCFE40C00003003FE7FFFFFCE7FD9E
:104B5000BFFCE7FFF8FCFE40400002003FE7FFFF1C
:104B6000FCE7F99FFCE7FFC7FCFE4030000C003F6C
:104B7000E7FFFFFCE7F99FFCE7EC3FFCFE401E006F
:104B800038003FE7FFFFFCE7FFFFFCE7E3FFFCFE29
:104B90004007FFE0003FE7FFFFFCE7FFFFFCE7EF18
:104BA000FFFCFE4000FF80003FE7FFFFFCE7FFFF48
:104BB000FCE7FFFFFCFE40000000003FE7FFFFFCBA
:104BC000E7FFFFFCE7FFFFFCFE40000000003FE7BF
:104BD000FFFFFCE7DFFDFCE7EFFEFCFE400000000E
:104BE000003FE7FFFFFCE7DFFDFCE7E000FCFE40E5
:104BF000800001003FE7FFFFFCE78001FCE7EF7E5C
:104C0000FCFE40800001003FE7FFFFFCE7FFFDFCEA
:104C1000E7EF7EFCFE40FFFFFF003FE7DFFDFCE724
:104C2000FFFDFCE7EF7EFCFE40E00001003FE7DF18
:104C3000FDFCE7FFFFFCE7EF7EFCFE407C0001008F
:104C40003FE7DFFDFCE7FFFFFCE7EC1EFCFE401F3B
:104C50000000003FE7C001FCE7FFFFFCE7E7FCFCCA
:104C6000FE4007C000003FE7DFFDFCE7FFE3FCE795
:104C7000FBFBFCFE4000F000003FE7DFFDFCE780AF
:104C8000FDFCE7FFFFFCFE40003C00003FE7DFFDCE
:104C9000FCE7BEFDFCE7EFFEFCFE40000F00003F1E
:104CA000E7FFFFFCE7BDFDFCE7E000FCFE40000382
:104CB000E0003FE7FFFFFCE7BDFDFCE7EF7EFCFE09
:104CC000408000F8003FE7FFFFFCE7BDFDFCE7EF99
:104CD0007FFCFE4080003E003FE7FDFDFCE7BEFBA1
:104CE000FCE7EF3FFCFE40FFFFFF003FE7FC01FC5D
:104CF000E7BF07FCE7EF4FFCFE40800000003FE706
:104D0000FEFDFCE7FFFFFCE7F6F3FCFE4080000041
:104D1000003FE7FDFFFCE7FFFFFCE7F9FCFCFE407E
:104D2000000000003FE7FDFFFCE7E3F9FCE7FFFEC2
:104D3000FCFE40000000003FE7FDFDFCE7DFF5FC66
:104D4000E7FFFFFCFE4000FF80003FE7FE01FCE7BD
:104D5000BFEDFCE7FFFFFCFE4007FFE0003FE7FF81
:104D6000FDFCE7BFDDFCE7FFFFFCFE401E00780016
:104D70003FE7FFFFFCE7BFBDFCE7FFFFFCFE403065
:104D8000000C003FE7FFFFFCE7BF7DFCE7FFFFFCF7
:104D9000FE40600006003FE7FF07FCE7DEFDFCE7A2
:104DA000FFFFFCFE40400003003FE7FEFBFCE7E1A5
:104DB000F1FCE7FFFFFCFE40800001003FE7FDFD46
:104DC000FCE7FFFFFCE7FFFFFCFE40800001003F27
:104DD000E7FDFDFCE7FFFFFCE7FFFFFCFE40800076
:104DE00001003FE7FDFDFCE7FFFFFCE7FFFFFCFEE6
:104DF00040800001003FE7FDFDFCE7FFFFFCE7FF0F
:104E0000FFFCFE40400401003FE7FE7BFCE7FFFFA4
:104E1000FCE7FFFFFCFE40600402003FE7FFF7FCF9
:104E2000E7FFFFFCE7EFFEFCFE407007FC003FE7FA
:104E3000FFFFFCE7FFFFFCE7EFFEFCFE401C07FC6A
:104E4000003FE7FFFFFCE7FFFFFCE7EFFEFCFE4053
:104E5000000400003FE7DFFDFCE7FFFFFCE7E000A8
:104E6000FCFE40000400003FE7C001FCE7FFFFFC40
:104E7000E7EFFEFCFE40000000003FE7FEFDFCE720
:104E8000FFFFFCE7EFFEFCFE40000000003FE7FDF7
:104E9000FFFCE7FFFFFCE7EFFEFCFE400000000028
:104EA0003FE7FDFFFCE7FDFFBCE7FFFFFCFE400026
:104EB0000000003FE7FDFDFCE7FC003CE7FFFFFCD6
:104EC000FE40000000003FE7FE01FCE7FEFBBCE700
:104ED000FE07FCFE40000000003FE7FFFDFCE7FD91
:104EE000FDFCE7F9F9FCFE40000000003FE7FFFF92
:104EF000FCE7FDFDFCE7F7FDFCFE40000000003F85
:104F0000E7FFFFFCE7FDFDFCE7EFFEFCFE400000D5
:104F100000003FE7FFFFFCE7FEFBFCE7EFFEFCFEC7
:104F200040000000003FE7FFFFFCE7FF07FCE7EF62
:104F3000FEFCFE40000000003FE7FFFFFCE7FFFF34
:104F4000FCE7EFFEFCFE40000000003FE7FFFFFC37
:104F5000E7FFFFFCE7F7FDFCFE40000000003FE735
:104F6000FFFFFCE7FFFFFCE7E1F3FCFE4000000071
:104F7000003FE7FFFFFCE7FDFDFCE7FFFFFCFE4015
:104F8000000000003FE7FFFFFCE7CDFDFCE7FFFF6F
:104F9000FCFE40000000003FE7FFFFFCE7CC01FC07
:104FA000E7FFFFFCFE40000000003FE7FFFFFCE7DB
:104FB000FFFDFCE7FFFFFCFE40000000003FE7FFB5
:104FC000FFFCE7FFFDFCE7FFFFFCFE4000000000E8
:104FD0003FE7DFFDFCE7FFFFFCE7FCFCFCFE4000D9
:104FE0000000003FE7C001FCE7FFFFFCE7FCFCFC22
:104FF000FE40000000003FE7DEFDFCE7FFFFFCE7AE
:10500000FFFFFCFE40000000003FE7DEFDFCE7FF85
:10501000FFFCE7FFFFFCFE40000000E03FE7DEFD95
:10502000FCE7FFFFFCE7FFFFFCFE40000000E03F65
:10503000E7DEFDFCE7FDFDFCE7FFFFFCFE400000B6
:1050400000F03FE7D83DFCE7FCF9FCE7FFFFFCFE82
:1050500040000000103FE7CFF9FCE7FD75FCE7F8E2
:10506000F0FCFE40000000103FE7F7F7FCE7FF8F81
:10507000FCE7F77DFCFE40800000103FE7FFFFFCEF
:10508000E7FF8FFCE7EF7EFCFE40800000103FE76B
:10509000FFFFFCE7FD75FCE7EFBEFCFE4080000073
:1050A000103FE7FEFFFCE7FCF9FCE7EFBEFCFE402B
:1050B000800000203FE7FEFFFCE7FDFDFCE7F7DD99
:1050C000FCFE40800000603FE7FEFFFCE7FFFFFCC6
:1050D000E7E3E3FCFE40FFFFFFC03FE7FEFFFCE726
:1050E000FFFFFCE7FFFFFCFE40FFFFFF003FE7FE86
:1050F000FFFCE7FF07FCE7FFFFFCFE40800000002D
:105100003FE7FEFFFCE7FEDBFCE7FFFFFCFE408025
:105110000000003FE7FEFFFCE7FDDDFCE7FFFFFCD2
:10512000FE40800000003FE7FEFFFCE7FDDDFCE7FE
:10513000F8F0FCFE40800000003FE7FFFFFCE7FDC9
:10514000DDFCE7F77DFCFE40800000003FE7FFFF4D
:10515000FCE7FDDDFCE7EF7EFCFE40000000003FC9
:10516000E7FDFFBCE7FEDBFCE7EFBEFCFE40000016
:1051700000003FE7FC003CE7FF17FCE7EFBEFCFE4A
:1051800040000000003FE7FEFBBCE7FFFFFCE7F745
:10519000DDFCFE40000000003FE7FDFDFCE7FFFFF7
:1051A000FCE7E3E3FCFE40000000003FE7FDFDFC00
:1051B000E7DFFDFCE7FFFFFCFE40800001003FE76A
:1051C000FDFDFCE7DFFDFCE7FFFFFCFE408000018A
:1051D000003FE7FEFBFCE7DFFDFCE7EFFEFCFE40E7
:1051E000800001003FE7FF07FCE78001FCE7E000EB
:1051F000FCFE40800001003FE7FFFFFCE7FFFDFCF5
:10520000E7EFFEFCFE40FFFFFF003FE7FFFFFCE78C
:10521000FFFDFCE7EFFEFCFE40FFFFFF003FE7FE67
:1052200063FCE7FFFDFCE7EFFEFCFE4080000100B1
:105230003FE7FDDDFCE7FFFFFCE7EFFEFCFE408003
:105240000001003FE7FDDDFCE7FFFFFCE7F7FDFCA9
:10525000FE40800001003FE7FDDDFCE7FFFFFCE7CB
:10526000FBFBFCFE40800001003FE7FDBDFCE7FECC
:1052700031FCE7FC07FCFE40000000003FE7FDBBFF
:10528000FCE7FDBBFCE7FFFFFCFE40000000003F29
:10529000E7FE01FCE7FDDDFCE7FFFFFCFE40000050
:1052A00000003FE7FFFDFCE7FDDDFCE7FFFFFCFE44
:1052B00040000000003FE7FFF9FCE7FDDDFCE7FFF1
:1052C000FFFCFE40000000003FE7FFFFFCE7FEEDB3
:1052D000FCE7EFFEFCFE40800001003FE7FDFDFC27
:1052E000E7FC63FCE7EFFEFCFE40800001003FE7C7
:1052F000FDFDFCE7FFFFFCE7C000FCFE40FFFFFFF9
:10530000003FE7FC01FCE7FFFFFCE7FFFEFCFE407F
:10531000E00001003FE7FF7DFCE7FFFFFCE7FFFE49
:10532000FCFE407C0001003FE7FEFDFCE7FFFFFCC8
:10533000E7FFFFFCFE401F0000003FE7FDFFFCE72A
:10534000FFFFFCE7FFFFFCFE4007C000003FE7FD5A
:10535000FFFCE7FFFFFCE7FFFFFCFE4000F0000062
:105360003FE7FCFFFCE7FFFFFCE7F807FCFE40001F
:105370003C00003FE7FFFFFCE0000000E7F779FC9E
:10538000FE40000F00003FE7FFFFFCE0000000E7E9
:10539000EEFEFCFE400003E0003FE7FF07FCFFFFDE
:1053A000FFFFE7DEFEFCFE408000F8003FE7FEDB8B
:1053B000FCFFFFFFFFE7DEFEFCFE4080003E003FFB
:1053C000E7FDDDFCFFFFFFFFE7DEFEFCFE40FFFF29
:1053D000FF003FE7FDDDFCFFFFFFFFE7E77DFCFE91
:1053E00040800000003FE7FDDDFCFFFFFFFFE7FF1F
:1053F00083FCFE40800000003FE7FDDDFCFFFFFF77
:10540000FFE7FFFFFCFE40000000003FE7FEDBFC83
:10541000FFFFFFFFE7FFFFFCFE40000000003FE74B
:10542000FF17FCFFFFFFFFE7F1C3FCFE4000000099
:10543000003FE7FFFFFCFFFFFFFFE7EEBDFCFE4084
:1054400000FF80003FE7FFFFFCFFFFFFFFE7DF7E7D
:10545000FCFE4007FFE0003FE7FDFDFCFFFFFFFF14
:10546000E7DF7EFCFE401E0078003FE7FDFDFCFF0D
:10547000FFFFFFE7DF7EFCFE4030000C003FE7FC53
:1054800001FCFFFFFFFFE7DF7EFCFE40600006003F
:105490003FE7FF7DFCFFFFFFFFE7EEBDFCFE404066
:1054A0000003003FE7FEFDFCFFFFFFFFE7F1C3FC49
:1054B000FE40800001003FE7FDFFFCFFFFFFFFE72C
:1054C000FFFFFCFE40800001003FE7FDFFFCFFFF07
:1054D000FFFFE7FFFFFCFE40800001003FE7FCFF0D
:1054E000FCFFFFFFFFE7F807FCFE40800001003FE4
:1054F000E7FFFFFCFFFFFFFFE7E7F9FCFE4040048A
:1055000001003FE7FFFFFCFFFFFFFFE7DFFEFCFEC0
:1055100040600402003FE7FFFFFCFFFFFFFFE7DF03
:10552000FEFCFE407007FC003FE0000000FFFFFFB4
:10553000FFE7DFFEFCFE401C07FC003FE000000030
:10554000FFFFFFFFE7DFFEFCFE40000400003FFF1F
:10555000FFFFFFFFFFFFFFE7E7F9FCFE400004004D
:10556000003FFFFFFFFFFFFFFFFFE7F807FCFE40E4
:10557000000000003FFFFFFFFFFFFFFFFFE7FFFF0F
:10558000FCFE40000000003FFFFFFFFFFFFFFFFFAA
:10559000E7FFFFFCFE40000000003FFFFFFFFFFFB2
:1055A000FFFFFFE7FFFFFCFE40000000003FFFFFA2
:1055B000FFFFFFFFFFFFE7FFFFFCFE4000000000D2
:1055C0003FFFFFFFFFFFFFFFFFE7FFFFFCFE400085
:1055D0000000003FFFFFFFFFFFFFFFFFE7FFFFFCB3
:1055E000FE40000000003FFFFFFFFFFFFFFFFFE75F
:1055F000FFFFFCFE40000000003FFFFFFFFFFFFF3A
:10560000FFFFE7FFFFFCFE40000000003FFFFFFF41
:10561000FFFFFFFFFFE7FFFFFCFE40000000003F31
:10562000E00000000000000FE0000000FE4000006D
:1056300000003FEFFFFFFFFFFFFFEFE0000000FE75
:1056400040000000003FEFFFFFFFFFFFFFEFFFFF05
:10565000FFFFFE40000000003FEFFFFFFFFFFFFFE6
:10566000EFFFFFFFFFFE40000000003FEFFFFFFFE6
:10567000FFFFFFEFFFFFFFFFFE40000000003FEFD6
:10568000FFFFFFFFFFFFEFFFFFFFFFFE40000000F7
:10569000003FEFFFFFFFFFFFFFEFFFFFFFFFFE40B9
:1056A000000000003FEFFFFFFFFFFFFFEFFFFFFFE6
:1056B000FFFE40000000003FEFFFFFFFFFFFFFEF96
:1056C000FFFFFFFFFE40000000003FEFFFFFFFFF76
:1056D000FFFFEFFFFFFFFFFE40000000003FEFFF76
:1056E000FFFFFFFFFFEFFFFFFFFFFE400000000096
:1056F0003FEFFFFFFFFFFFFFEFFFFFFFFFFE4080D9
:105700000000003FEFFFFFFFFFFFFFEFFFFFFFFF86
:10571000FE40C00000003FEFFFFFFFFFFFFFEFFF75
:10572000FFFFFFFE40F00000003FEFFFFFFFFFFF25
:10573000FFEFFFFFFFFFFE40FC0000003FEFFFFF19
:10574000FFFFFFFFEFFFFFFFFFFE409F8000003FD6
:10575000EFFFFFFFFFFFFFEFFFFFFFFFFE4083E0D4
:1057600001003FEFFFFFFFFFFFFFEFFFFFFFFFFE27
:105770004000FC01003FEFFFFFFFFFFFFFEFFFFFD7
:10578000FFFFFE40001FFF003FEFFFFFFFFFFFFF97
:10579000EFFFFFFFFFFE40000FFF003FEFFFFFFFA7
:1057A000FFFFFFEFFFFFFFFFFE40003801003FEF6C
:1057B000FFFFFFFFFFFFEFFFFFFFFFFE4001C00104
:1057C000003FEFFFFFFFFFFFFFEFFFFFFFFFFE4088
:1057D000870000003FEFFFFFFFFFFFFFEFFFFFFF2E
:1057E000FFFE40F80000003FEFFFFFFFFFFFFFEF6D
:1057F000FFFFFFFFFE40E00000003FEFFFFFFFFF65
:10580000FFFFEFFFFFFFFFFE40800000003FEFFFC4
:10581000FFFFFFFFFFEFFFFFFFFFFE4080000000E4
:105820003FEFFFFFFFFFFFFFEFFFFFFFFFFE400027
:105830000000003FEFFFFFFFFFFFFFEFFFFFFFFF55
:10584000FE40000000003FEFFFFFFFFFFFFFEFFF04
:10585000FFFFFFFE40800000003FEFFFFFFFFFFF64
:10586000FFEFFFFFFFFFFE40800000003FEFFFFF64
:10587000FFFFFFFFEFFFFFFFFFFE40FFFFF8003FCE
:10588000EFFFFFFFFFFFFFEFFFFFFFFFFE40FFFF08
:10589000FC003FEFFFFFFFFFFFFFEFFFFFFFFFFEFB
:1058A00040800006003FEFFFFFFFFC00000000000B
:1058B0000001FE40800002003FEFFFFFFFFC000000
:1058C0000000000001FE40000001003FEFFFFFFF6D
:1058D000FC00000000000001FE40000001003FEF5E
:1058E000FFFFFFFC00000000000001FE400000017F
:1058F000003FEFFFFFFFFC00000000000001FE4042
:10590000000001003FEFFFFFFFFC0000000000006F
:1059100001FE40000001003FEFFFFFFFFC00000020
:1059200000000001FE40000002003FEFFFFFFFFC0F
:1059300000000000000001FE40800002003FEFFF79
:10594000FFFFFC00000000000001FE4080000C0092
:105950003FEFFFFFFFFC00000000000001FE40FFE2
:10596000FFF8003FEFFFFFFFFC0000000000000118
:10597000FE40800000003FEFFFFFFFFC0000000042
:10598000000001FE40800000003FEFFFFFFFFC0031
:10599000000000000001FE40000000003FEFFFFF9C
:1059A000FFFC00000000000001FE40000000003F7E
:1059B000EFFFFFFFFC00000000000001FE400000C0
:1059C00001003FEFFFFFFFFC00000000000001FEB0
:1059D00040000001003FEFFFFFFFFC00000000005F
:1059E0000001FE4000001F003FEFFFFFFFFC000032
:1059F0000000000001FE400001F3003FEFFFFFFF49
:105A0000FC00000000000001FE40000F01003FEF1D
:105A1000FFFFFFFC00000000000001FE4000F2005C
:105A2000003FEFFFFFFFFC00000000000001FE4010
:105A30000F0200003FE00000000000000000000036
:105A400001FE40F00200003FFFFFFFFFFC000000EE
:105A500000000001FE40F00200003FFFFFFFFFFCDE
:105A600000000000000001FE40FF0200003FFFFFB9
:105A7000FFFFFC00000000000001FE400FF20000EC
:105A80003FFFFFFFFFFC00000000000001FE4000A0
:105A9000FF81003FFFFFFFFFFC000000000000014E
:105AA000FE40000FF9003FFFFFFFFFFC0000000079
:105AB000000001FE400000FF003FFFFFFFFFFC0071
:105AC000000000000001FE4000000F003FFFFFFF4C
:105AD000FFFC00000000000001FE40000001003F4C
